{
  "_format": "hh-sol-artifact-1",
  "contractName": "NileLinkProtocol",
  "sourceName": "contracts/NileLinkProtocol.sol",
  "abi": [
    {
      "inputs": [
        {
          "internalType": "address",
          "name": "_usdc",
          "type": "address"
        },
        {
          "internalType": "address",
          "name": "_feeRecipient",
          "type": "address"
        }
      ],
      "stateMutability": "nonpayable",
      "type": "constructor"
    },
    {
      "inputs": [],
      "name": "InvalidAddress",
      "type": "error"
    },
    {
      "inputs": [],
      "name": "Unauthorized",
      "type": "error"
    },
    {
      "anonymous": false,
      "inputs": [
        {
          "indexed": true,
          "internalType": "address",
          "name": "caller",
          "type": "address"
        },
        {
          "indexed": false,
          "internalType": "bool",
          "name": "isAuthorized",
          "type": "bool"
        }
      ],
      "name": "AuthorizedCallerUpdated",
      "type": "event"
    },
    {
      "anonymous": false,
      "inputs": [
        {
          "indexed": true,
          "internalType": "address",
          "name": "account",
          "type": "address"
        },
        {
          "indexed": false,
          "internalType": "bool",
          "name": "isGovernance",
          "type": "bool"
        }
      ],
      "name": "GovernanceUpdated",
      "type": "event"
    },
    {
      "anonymous": false,
      "inputs": [
        {
          "indexed": true,
          "internalType": "address",
          "name": "previousOwner",
          "type": "address"
        },
        {
          "indexed": true,
          "internalType": "address",
          "name": "newOwner",
          "type": "address"
        }
      ],
      "name": "OwnershipTransferred",
      "type": "event"
    },
    {
      "anonymous": false,
      "inputs": [
        {
          "indexed": false,
          "internalType": "address",
          "name": "account",
          "type": "address"
        }
      ],
      "name": "Paused",
      "type": "event"
    },
    {
      "anonymous": false,
      "inputs": [
        {
          "indexed": false,
          "internalType": "uint16",
          "name": "oldFeeBps",
          "type": "uint16"
        },
        {
          "indexed": false,
          "internalType": "uint16",
          "name": "newFeeBps",
          "type": "uint16"
        },
        {
          "indexed": false,
          "internalType": "uint64",
          "name": "timestamp",
          "type": "uint64"
        }
      ],
      "name": "ProtocolFeeUpdated",
      "type": "event"
    },
    {
      "anonymous": false,
      "inputs": [
        {
          "indexed": false,
          "internalType": "address",
          "name": "restaurantRegistry",
          "type": "address"
        },
        {
          "indexed": false,
          "internalType": "address",
          "name": "orderSettlement",
          "type": "address"
        },
        {
          "indexed": false,
          "internalType": "address",
          "name": "currencyExchange",
          "type": "address"
        },
        {
          "indexed": false,
          "internalType": "address",
          "name": "disputeResolution",
          "type": "address"
        },
        {
          "indexed": false,
          "internalType": "address",
          "name": "fraudDetection",
          "type": "address"
        },
        {
          "indexed": false,
          "internalType": "address",
          "name": "investorVault",
          "type": "address"
        },
        {
          "indexed": false,
          "internalType": "address",
          "name": "supplierCredit",
          "type": "address"
        },
        {
          "indexed": false,
          "internalType": "uint64",
          "name": "timestamp",
          "type": "uint64"
        }
      ],
      "name": "ProtocolInitialized",
      "type": "event"
    },
    {
      "anonymous": false,
      "inputs": [
        {
          "indexed": false,
          "internalType": "address",
          "name": "account",
          "type": "address"
        }
      ],
      "name": "Unpaused",
      "type": "event"
    },
    {
      "inputs": [
        {
          "internalType": "address",
          "name": "",
          "type": "address"
        }
      ],
      "name": "authorizedCallers",
      "outputs": [
        {
          "internalType": "bool",
          "name": "",
          "type": "bool"
        }
      ],
      "stateMutability": "view",
      "type": "function"
    },
    {
      "inputs": [
        {
          "internalType": "bytes16[]",
          "name": "orderIds",
          "type": "bytes16[]"
        },
        {
          "internalType": "address[]",
          "name": "restaurants",
          "type": "address[]"
        },
        {
          "internalType": "address[]",
          "name": "customers",
          "type": "address[]"
        },
        {
          "internalType": "uint256[]",
          "name": "amountsUs6",
          "type": "uint256[]"
        },
        {
          "internalType": "enum NileLinkTypes.PaymentMethod[]",
          "name": "methods",
          "type": "uint8[]"
        }
      ],
      "name": "batchCreateOrders",
      "outputs": [],
      "stateMutability": "nonpayable",
      "type": "function"
    },
    {
      "inputs": [
        {
          "internalType": "bytes16",
          "name": "orderId",
          "type": "bytes16"
        },
        {
          "internalType": "address",
          "name": "restaurant",
          "type": "address"
        },
        {
          "internalType": "address",
          "name": "customer",
          "type": "address"
        },
        {
          "internalType": "uint256",
          "name": "amountUsd6",
          "type": "uint256"
        },
        {
          "internalType": "enum NileLinkTypes.PaymentMethod",
          "name": "method",
          "type": "uint8"
        }
      ],
      "name": "createAndPayOrder",
      "outputs": [
        {
          "internalType": "bool",
          "name": "success",
          "type": "bool"
        }
      ],
      "stateMutability": "nonpayable",
      "type": "function"
    },
    {
      "inputs": [],
      "name": "currencyExchange",
      "outputs": [
        {
          "internalType": "contract CurrencyExchange",
          "name": "",
          "type": "address"
        }
      ],
      "stateMutability": "view",
      "type": "function"
    },
    {
      "inputs": [],
      "name": "disputeResolution",
      "outputs": [
        {
          "internalType": "contract DisputeResolution",
          "name": "",
          "type": "address"
        }
      ],
      "stateMutability": "view",
      "type": "function"
    },
    {
      "inputs": [],
      "name": "emergencyPause",
      "outputs": [],
      "stateMutability": "nonpayable",
      "type": "function"
    },
    {
      "inputs": [],
      "name": "emergencyUnpause",
      "outputs": [],
      "stateMutability": "nonpayable",
      "type": "function"
    },
    {
      "inputs": [
        {
          "internalType": "contract IERC20",
          "name": "token",
          "type": "address"
        },
        {
          "internalType": "address",
          "name": "to",
          "type": "address"
        },
        {
          "internalType": "uint256",
          "name": "amount",
          "type": "uint256"
        }
      ],
      "name": "emergencyWithdraw",
      "outputs": [],
      "stateMutability": "nonpayable",
      "type": "function"
    },
    {
      "inputs": [],
      "name": "feeRecipient",
      "outputs": [
        {
          "internalType": "address",
          "name": "",
          "type": "address"
        }
      ],
      "stateMutability": "view",
      "type": "function"
    },
    {
      "inputs": [],
      "name": "fraudDetection",
      "outputs": [
        {
          "internalType": "contract FraudDetection",
          "name": "",
          "type": "address"
        }
      ],
      "stateMutability": "view",
      "type": "function"
    },
    {
      "inputs": [],
      "name": "getContractAddresses",
      "outputs": [
        {
          "components": [
            {
              "internalType": "address",
              "name": "restaurantRegistry",
              "type": "address"
            },
            {
              "internalType": "address",
              "name": "orderSettlement",
              "type": "address"
            },
            {
              "internalType": "address",
              "name": "currencyExchange",
              "type": "address"
            },
            {
              "internalType": "address",
              "name": "disputeResolution",
              "type": "address"
            },
            {
              "internalType": "address",
              "name": "fraudDetection",
              "type": "address"
            },
            {
              "internalType": "address",
              "name": "investorVault",
              "type": "address"
            },
            {
              "internalType": "address",
              "name": "supplierCredit",
              "type": "address"
            },
            {
              "internalType": "address",
              "name": "usdc",
              "type": "address"
            },
            {
              "internalType": "address",
              "name": "feeRecipient",
              "type": "address"
            }
          ],
          "internalType": "struct ContractAddresses",
          "name": "addresses",
          "type": "tuple"
        }
      ],
      "stateMutability": "view",
      "type": "function"
    },
    {
      "inputs": [],
      "name": "getProtocolStats",
      "outputs": [
        {
          "components": [
            {
              "internalType": "uint256",
              "name": "totalRestaurants",
              "type": "uint256"
            },
            {
              "internalType": "uint256",
              "name": "totalOrders",
              "type": "uint256"
            },
            {
              "internalType": "uint256",
              "name": "totalVolumeUsd6",
              "type": "uint256"
            },
            {
              "internalType": "uint256",
              "name": "activeDisputes",
              "type": "uint256"
            },
            {
              "internalType": "uint256",
              "name": "totalInvestmentsUsd6",
              "type": "uint256"
            },
            {
              "internalType": "uint256",
              "name": "protocolFeesCollectedUsd6",
              "type": "uint256"
            }
          ],
          "internalType": "struct ProtocolStats",
          "name": "stats",
          "type": "tuple"
        }
      ],
      "stateMutability": "view",
      "type": "function"
    },
    {
      "inputs": [
        {
          "internalType": "address",
          "name": "",
          "type": "address"
        }
      ],
      "name": "governance",
      "outputs": [
        {
          "internalType": "bool",
          "name": "",
          "type": "bool"
        }
      ],
      "stateMutability": "view",
      "type": "function"
    },
    {
      "inputs": [],
      "name": "investorVault",
      "outputs": [
        {
          "internalType": "contract InvestorVault",
          "name": "",
          "type": "address"
        }
      ],
      "stateMutability": "view",
      "type": "function"
    },
    {
      "inputs": [],
      "name": "orderSettlement",
      "outputs": [
        {
          "internalType": "contract OrderSettlement",
          "name": "",
          "type": "address"
        }
      ],
      "stateMutability": "view",
      "type": "function"
    },
    {
      "inputs": [],
      "name": "owner",
      "outputs": [
        {
          "internalType": "address",
          "name": "",
          "type": "address"
        }
      ],
      "stateMutability": "view",
      "type": "function"
    },
    {
      "inputs": [],
      "name": "paused",
      "outputs": [
        {
          "internalType": "bool",
          "name": "",
          "type": "bool"
        }
      ],
      "stateMutability": "view",
      "type": "function"
    },
    {
      "inputs": [],
      "name": "protocolFeeBps",
      "outputs": [
        {
          "internalType": "uint16",
          "name": "",
          "type": "uint16"
        }
      ],
      "stateMutability": "view",
      "type": "function"
    },
    {
      "inputs": [],
      "name": "renounceOwnership",
      "outputs": [],
      "stateMutability": "nonpayable",
      "type": "function"
    },
    {
      "inputs": [],
      "name": "restaurantRegistry",
      "outputs": [
        {
          "internalType": "contract RestaurantRegistry",
          "name": "",
          "type": "address"
        }
      ],
      "stateMutability": "view",
      "type": "function"
    },
    {
      "inputs": [
        {
          "internalType": "address",
          "name": "caller",
          "type": "address"
        },
        {
          "internalType": "bool",
          "name": "isAuthorized",
          "type": "bool"
        }
      ],
      "name": "setAuthorizedCaller",
      "outputs": [],
      "stateMutability": "nonpayable",
      "type": "function"
    },
    {
      "inputs": [
        {
          "internalType": "address",
          "name": "account",
          "type": "address"
        },
        {
          "internalType": "bool",
          "name": "isGovernance",
          "type": "bool"
        }
      ],
      "name": "setGovernance",
      "outputs": [],
      "stateMutability": "nonpayable",
      "type": "function"
    },
    {
      "inputs": [
        {
          "internalType": "bytes3",
          "name": "currency",
          "type": "bytes3"
        },
        {
          "internalType": "address",
          "name": "oracle",
          "type": "address"
        }
      ],
      "name": "setOracle",
      "outputs": [],
      "stateMutability": "nonpayable",
      "type": "function"
    },
    {
      "inputs": [],
      "name": "supplierCredit",
      "outputs": [
        {
          "internalType": "contract SupplierCredit",
          "name": "",
          "type": "address"
        }
      ],
      "stateMutability": "view",
      "type": "function"
    },
    {
      "inputs": [
        {
          "internalType": "address",
          "name": "newOwner",
          "type": "address"
        }
      ],
      "name": "transferOwnership",
      "outputs": [],
      "stateMutability": "nonpayable",
      "type": "function"
    },
    {
      "inputs": [
        {
          "internalType": "address",
          "name": "newRecipient",
          "type": "address"
        }
      ],
      "name": "updateFeeRecipient",
      "outputs": [],
      "stateMutability": "nonpayable",
      "type": "function"
    },
    {
      "inputs": [
        {
          "internalType": "uint16",
          "name": "newFeeBps",
          "type": "uint16"
        }
      ],
      "name": "updateProtocolFee",
      "outputs": [],
      "stateMutability": "nonpayable",
      "type": "function"
    },
    {
      "inputs": [],
      "name": "usdc",
      "outputs": [
        {
          "internalType": "contract IERC20",
          "name": "",
          "type": "address"
        }
      ],
      "stateMutability": "view",
      "type": "function"
    }
  ],
  "bytecode": "0x6101806040526002805461ffff60a01b1916601960a11b1790553480156200002657600080fd5b50604051620104a4380380620104a4833981016040819052620000499162000476565b6200005433620003a7565b6000805460ff60a01b19169055600180556001600160a01b0382811661016052600280546001600160a01b0319169183169190911790556040516200009990620003f7565b604051809103906000f080158015620000b6573d6000803e3d6000fd5b506001600160a01b03166080819052610160516040518390620000d99062000405565b6001600160a01b03938416815291831660208301529091166040820152606001604051809103906000f08015801562000116573d6000803e3d6000fd5b506001600160a01b031660a052604051620001319062000413565b604051809103906000f0801580156200014e573d6000803e3d6000fd5b506001600160a01b031660c05260a05161016051604051620001709062000421565b6001600160a01b03928316815291166020820152604001604051809103906000f080158015620001a4573d6000803e3d6000fd5b506001600160a01b031660e052604051620001bf906200042f565b604051809103906000f080158015620001dc573d6000803e3d6000fd5b506001600160a01b0316610100526101605160a051604051839062000201906200043d565b6001600160a01b03938416815291831660208301529091166040820152606001604051809103906000f0801580156200023e573d6000803e3d6000fd5b506001600160a01b031661012052610160516040516200025e906200044b565b6001600160a01b039091168152602001604051809103906000f0801580156200028b573d6000803e3d6000fd5b506001600160a01b039081166101405260a05160025460405163e4467f3560e01b8152600160a01b90910461ffff16600482015291169063e4467f3590602401600060405180830381600087803b158015620002e657600080fd5b505af1158015620002fb573d6000803e3d6000fd5b505060805160a05160c05160e0516101005161012051610140516040517f83e04b5da6ed2ec2a3cd9f42754d253b3e790498c0869c35e9c29766f5fce53a995062000397985042906001600160a01b0398891681529688166020880152948716604087015292861660608601529085166080850152841660a084015290921660c08201526001600160401b039190911660e08201526101000190565b60405180910390a15050620004ae565b600080546001600160a01b038381166001600160a01b0319831681178455604051919092169283917f8be0079c531659141344cd1fd0a4f28419497f9722a3daafe3b4186f6b6457e09190a35050565b611c878062002b1f83390190565b6124c480620047a683390190565b611c6c8062006c6a83390190565b6120e380620088d683390190565b611b29806200a9b983390190565b611cf8806200c4e283390190565b6122ca806200e1da83390190565b80516001600160a01b03811681146200047157600080fd5b919050565b600080604083850312156200048a57600080fd5b620004958362000459565b9150620004a56020840162000459565b90509250929050565b60805160a05160c05160e0516101005161012051610140516101605161251662000609600039600081816102b001526105ca015260008181610261015281816105a201528181610ac801528181610ff7015261137d0152600081816101f60152818161057a01528181610a4501528181610f840152818161130a0152611a8201526000818161038c01528181610552015281816109c201528181610f1101528181611297015261181b01526000818161052a015281816106980152818161093f01528181610e9e01526112240152600081816103180152818161050001528181610c4601528181610e2b01526111b10152600081816104d8015281816106bf015281816107b701528181610db80152818161113e015281816114f5015281816115880152611a0701526000818161023a015281816104b3015281816108bc01528181610cc401528181610d4501526110cb01526125166000f3fe608060405234801561001057600080fd5b50600436106101c45760003560e01c80635c975abb116100f9578063953874d211610097578063e10bc3c211610071578063e10bc3c2146106ba578063e63ea408146106e1578063f160d369146106f4578063f2fde38b1461070757600080fd5b8063953874d214610451578063ad00775614610680578063be9157cf1461069357600080fd5b8063771aceef116100d3578063771aceef146103b6578063777597511461040a5780638426e6c11461041d5780638da5cb5b1461044057600080fd5b80635c975abb14610375578063613df47c14610387578063715018a6146103ae57600080fd5b8063454bbd29116101665780634a4e3bd5116101405780634a4e3bd51461030b5780634a9fa44d1461031357806351858e271461033a578063536fff6c1461034257600080fd5b8063454bbd29146102d257806346904840146102e55780634872b0f0146102f857600080fd5b806323cf41c8116101a257806323cf41c8146102355780632af71ee01461025c57806335659fb8146102835780633e413bee146102ab57600080fd5b8063020624d2146101c9578063158a1ca1146101de5780631c606fb9146101f1575b600080fd5b6101dc6101d7366004612072565b61071a565b005b6101dc6101ec3660046120c0565b610866565b6102187f000000000000000000000000000000000000000000000000000000000000000081565b6040516001600160a01b0390911681526020015b60405180910390f35b6102187f000000000000000000000000000000000000000000000000000000000000000081565b6102187f000000000000000000000000000000000000000000000000000000000000000081565b60025461029890600160a01b900461ffff1681565b60405161ffff909116815260200161022c565b6102187f000000000000000000000000000000000000000000000000000000000000000081565b6101dc6102e03660046120c0565b610b6f565b600254610218906001600160a01b031681565b6101dc6103063660046120f9565b610c27565b6101dc610d33565b6102187f000000000000000000000000000000000000000000000000000000000000000081565b6101dc61106a565b610365610350366004612134565b60046020526000908152604090205460ff1681565b604051901515815260200161022c565b600054600160a01b900460ff16610365565b6102187f000000000000000000000000000000000000000000000000000000000000000081565b6101dc6113d6565b6103be6113ea565b60405161022c9190600060c082019050825182526020830151602083015260408301516040830152606083015160608301526080830151608083015260a083015160a083015292915050565b61036561041836600461217d565b61145b565b61036561042b366004612134565b60036020526000908152604090205460ff1681565b6000546001600160a01b0316610218565b6105ff6040805161012081018252600080825260208201819052918101829052606081018290526080810182905260a0810182905260c0810182905260e081018290526101008101919091525060408051610120810182526001600160a01b037f0000000000000000000000000000000000000000000000000000000000000000811682527f0000000000000000000000000000000000000000000000000000000000000000811660208301527f00000000000000000000000000000000000000000000000000000000000000008116928201929092527f0000000000000000000000000000000000000000000000000000000000000000821660608201527f0000000000000000000000000000000000000000000000000000000000000000821660808201527f0000000000000000000000000000000000000000000000000000000000000000821660a08201527f0000000000000000000000000000000000000000000000000000000000000000821660c08201527f0000000000000000000000000000000000000000000000000000000000000000821660e082015260025490911661010082015290565b60405161022c919081516001600160a01b03908116825260208084015182169083015260408084015182169083015260608084015182169083015260808084015182169083015260a08084015182169083015260c08084015182169083015260e0808401518216908301526101009283015116918101919091526101200190565b6101dc61068e36600461222b565b611609565b6102187f000000000000000000000000000000000000000000000000000000000000000081565b6102187f000000000000000000000000000000000000000000000000000000000000000081565b6101dc6106ef36600461231c565b61199f565b6101dc610702366004612134565b6119c0565b6101dc610715366004612134565b611ae3565b610722611b5c565b60648161ffff1611156107735760405162461bcd60e51b81526020600482015260146024820152734665652063616e6e6f742065786365656420312560601b60448201526064015b60405180910390fd5b6002805461ffff838116600160a01b81810261ffff60a01b1985161790945560405163e4467f3560e01b815260048101919091529290910416906001600160a01b037f0000000000000000000000000000000000000000000000000000000000000000169063e4467f3590602401600060405180830381600087803b1580156107fb57600080fd5b505af115801561080f573d6000803e3d6000fd5b50506040805161ffff8581168252861660208201524267ffffffffffffffff168183015290517f4d0df11d2215e9a97a53414300291da7786bc38ef97920235ce8fea21cdab0269350908190036060019150a15050565b61086e611b5c565b61087782611bb6565b6001600160a01b0382811660008181526003602052604090819020805460ff1916851515908117909155905163158a1ca160e01b8152600481019290925260248201527f00000000000000000000000000000000000000000000000000000000000000009091169063158a1ca190604401600060405180830381600087803b15801561090257600080fd5b505af1158015610916573d6000803e3d6000fd5b505060405163158a1ca160e01b81526001600160a01b03858116600483015284151560248301527f000000000000000000000000000000000000000000000000000000000000000016925063158a1ca19150604401600060405180830381600087803b15801561098557600080fd5b505af1158015610999573d6000803e3d6000fd5b505060405163158a1ca160e01b81526001600160a01b03858116600483015284151560248301527f000000000000000000000000000000000000000000000000000000000000000016925063158a1ca19150604401600060405180830381600087803b158015610a0857600080fd5b505af1158015610a1c573d6000803e3d6000fd5b505060405163158a1ca160e01b81526001600160a01b03858116600483015284151560248301527f000000000000000000000000000000000000000000000000000000000000000016925063158a1ca19150604401600060405180830381600087803b158015610a8b57600080fd5b505af1158015610a9f573d6000803e3d6000fd5b505060405163158a1ca160e01b81526001600160a01b03858116600483015284151560248301527f000000000000000000000000000000000000000000000000000000000000000016925063158a1ca19150604401600060405180830381600087803b158015610b0e57600080fd5b505af1158015610b22573d6000803e3d6000fd5b50505050816001600160a01b03167f677b149c7133585df1cf5e5f8402b5f5da9e312aadb23e03905504a6a880bd2482604051610b63911515815260200190565b60405180910390a25050565b3360009081526003602052604090205460ff16158015610ba9575033610b9d6000546001600160a01b031690565b6001600160a01b031614155b15610bc6576040516282b42960e81b815260040160405180910390fd5b610bcf82611bb6565b6001600160a01b038216600081815260046020908152604091829020805460ff191685151590811790915591519182527fad857fa38c9319cb80848f1ef2f924383b90297eb5d71755738ff037d100faa19101610b63565b610c2f611b5c565b6040516304872b0f60e41b81526001600160a01b037f00000000000000000000000000000000000000000000000000000000000000001690634872b0f090610c7d908590859060040161235d565b600060405180830381600087803b158015610c9757600080fd5b505af1158015610cab573d6000803e3d6000fd5b50506040516304872b0f60e41b81526001600160a01b037f0000000000000000000000000000000000000000000000000000000000000000169250634872b0f09150610cfd908590859060040161235d565b600060405180830381600087803b158015610d1757600080fd5b505af1158015610d2b573d6000803e3d6000fd5b505050505050565b610d3b611b5c565b610d43611bdd565b7f00000000000000000000000000000000000000000000000000000000000000006001600160a01b0316633f4ba83a6040518163ffffffff1660e01b8152600401600060405180830381600087803b158015610d9e57600080fd5b505af1158015610db2573d6000803e3d6000fd5b505050507f00000000000000000000000000000000000000000000000000000000000000006001600160a01b0316633f4ba83a6040518163ffffffff1660e01b8152600401600060405180830381600087803b158015610e1157600080fd5b505af1158015610e25573d6000803e3d6000fd5b505050507f00000000000000000000000000000000000000000000000000000000000000006001600160a01b0316633f4ba83a6040518163ffffffff1660e01b8152600401600060405180830381600087803b158015610e8457600080fd5b505af1158015610e98573d6000803e3d6000fd5b505050507f00000000000000000000000000000000000000000000000000000000000000006001600160a01b0316633f4ba83a6040518163ffffffff1660e01b8152600401600060405180830381600087803b158015610ef757600080fd5b505af1158015610f0b573d6000803e3d6000fd5b505050507f00000000000000000000000000000000000000000000000000000000000000006001600160a01b0316633f4ba83a6040518163ffffffff1660e01b8152600401600060405180830381600087803b158015610f6a57600080fd5b505af1158015610f7e573d6000803e3d6000fd5b505050507f00000000000000000000000000000000000000000000000000000000000000006001600160a01b0316633f4ba83a6040518163ffffffff1660e01b8152600401600060405180830381600087803b158015610fdd57600080fd5b505af1158015610ff1573d6000803e3d6000fd5b505050507f00000000000000000000000000000000000000000000000000000000000000006001600160a01b0316633f4ba83a6040518163ffffffff1660e01b8152600401600060405180830381600087803b15801561105057600080fd5b505af1158015611064573d6000803e3d6000fd5b50505050565b3360009081526003602052604090205460ff161580156110a45750336110986000546001600160a01b031690565b6001600160a01b031614155b156110c1576040516282b42960e81b815260040160405180910390fd5b6110c9611c32565b7f00000000000000000000000000000000000000000000000000000000000000006001600160a01b0316638456cb596040518163ffffffff1660e01b8152600401600060405180830381600087803b15801561112457600080fd5b505af1158015611138573d6000803e3d6000fd5b505050507f00000000000000000000000000000000000000000000000000000000000000006001600160a01b0316638456cb596040518163ffffffff1660e01b8152600401600060405180830381600087803b15801561119757600080fd5b505af11580156111ab573d6000803e3d6000fd5b505050507f00000000000000000000000000000000000000000000000000000000000000006001600160a01b0316638456cb596040518163ffffffff1660e01b8152600401600060405180830381600087803b15801561120a57600080fd5b505af115801561121e573d6000803e3d6000fd5b505050507f00000000000000000000000000000000000000000000000000000000000000006001600160a01b0316638456cb596040518163ffffffff1660e01b8152600401600060405180830381600087803b15801561127d57600080fd5b505af1158015611291573d6000803e3d6000fd5b505050507f00000000000000000000000000000000000000000000000000000000000000006001600160a01b0316638456cb596040518163ffffffff1660e01b8152600401600060405180830381600087803b1580156112f057600080fd5b505af1158015611304573d6000803e3d6000fd5b505050507f00000000000000000000000000000000000000000000000000000000000000006001600160a01b0316638456cb596040518163ffffffff1660e01b8152600401600060405180830381600087803b15801561136357600080fd5b505af1158015611377573d6000803e3d6000fd5b505050507f00000000000000000000000000000000000000000000000000000000000000006001600160a01b0316638456cb596040518163ffffffff1660e01b8152600401600060405180830381600087803b15801561105057600080fd5b6113de611b5c565b6113e86000611c75565b565b6114236040518060c001604052806000815260200160008152602001600081526020016000815260200160008152602001600081525090565b6040518060c0016040528060008152602001600081526020016000815260200160008152602001600081526020016000815250905090565b3360009081526004602052604081205460ff1615801561148b57503360009081526003602052604090205460ff16155b80156114b15750336114a56000546001600160a01b031690565b6001600160a01b031614155b156114ce576040516282b42960e81b815260040160405180910390fd5b6114d6611cc5565b6114de611d1e565b604051632b6cf06760e21b81526001600160a01b037f0000000000000000000000000000000000000000000000000000000000000000169063adb3c19c906115329089908990899089908990600401612380565b600060405180830381600087803b15801561154c57600080fd5b505af1158015611560573d6000803e3d6000fd5b505060405163f79d862d60e01b81526001600160801b031989166004820152602481018690527f00000000000000000000000000000000000000000000000000000000000000006001600160a01b0316925063f79d862d9150604401600060405180830381600087803b1580156115d657600080fd5b505af19250505080156115e7575060015b6115f3575060006115f7565b5060015b61160060018055565b95945050505050565b3360009081526004602052604090205460ff1615801561163957503360009081526003602052604090205460ff16155b801561165f5750336116536000546001600160a01b031690565b6001600160a01b031614155b1561167c576040516282b42960e81b815260040160405180910390fd5b611684611cc5565b61168c611d1e565b888714801561169a57508685145b80156116a557508483145b80156116b057508281145b6116f45760405162461bcd60e51b8152602060048201526015602482015274082e4e4c2f240d8cadccee8d040dad2e6dac2e8c6d605b1b604482015260640161076a565b60005b89811015611989573063777597518c8c84818110611717576117176123dd565b905060200201602081019061172c91906123f3565b8b8b8581811061173e5761173e6123dd565b90506020020160208101906117539190612134565b8a8a86818110611765576117656123dd565b905060200201602081019061177a9190612134565b89898781811061178c5761178c6123dd565b905060200201358888888181106117a5576117a56123dd565b90506020020160208101906117ba919061240e565b6040518663ffffffff1660e01b81526004016117da959493929190612380565b6020604051808303816000875af1925050508015611815575060408051601f3d908101601f1916820190925261181291810190612429565b60015b611975577f00000000000000000000000000000000000000000000000000000000000000006001600160a01b03166384a1f0cc8a8a8481811061185a5761185a6123dd565b905060200201602081019061186f9190612134565b604080518082018252601281527110905510d217d3d491115497d1905253115160721b602091820152815180830183528181527f496e646976696475616c206f7264657220696e206261746368206661696c65649101525160e083901b6001600160e01b03191681526001600160a01b0390911660048201527f9921a72a3a456406a8ea4734bc330936ddfa33387420e525f39e3b6d84ca0a8b6024820152600560448201527fca13a93d6e83f2a8a760dc53e9277bd5c9bdf32786fde5b0221b47ba121ffddf6064820152608401600060405180830381600087803b15801561195857600080fd5b505af115801561196c573d6000803e3d6000fd5b50505050611977565b505b8061198181612446565b9150506116f7565b5061199360018055565b50505050505050505050565b6119a7611b5c565b6119bb6001600160a01b0384168383611d6b565b505050565b6119c8611b5c565b6119d181611bb6565b600280546001600160a01b0319166001600160a01b0383811691821790925560405163e74b981b60e01b815260048101919091527f00000000000000000000000000000000000000000000000000000000000000009091169063e74b981b90602401600060405180830381600087803b158015611a4d57600080fd5b505af1158015611a61573d6000803e3d6000fd5b505060405163e74b981b60e01b81526001600160a01b0384811660048301527f000000000000000000000000000000000000000000000000000000000000000016925063e74b981b9150602401600060405180830381600087803b158015611ac857600080fd5b505af1158015611adc573d6000803e3d6000fd5b5050505050565b611aeb611b5c565b6001600160a01b038116611b505760405162461bcd60e51b815260206004820152602660248201527f4f776e61626c653a206e6577206f776e657220697320746865207a65726f206160448201526564647265737360d01b606482015260840161076a565b611b5981611c75565b50565b6000546001600160a01b031633146113e85760405162461bcd60e51b815260206004820181905260248201527f4f776e61626c653a2063616c6c6572206973206e6f7420746865206f776e6572604482015260640161076a565b6001600160a01b038116611b595760405163e6c4247b60e01b815260040160405180910390fd5b611be5611dbd565b6000805460ff60a01b191690557f5db9ee0a495bf2e6ff9c91a7834c1ba4fdd244a5e8aa4e537bd38aeae4b073aa335b6040516001600160a01b03909116815260200160405180910390a1565b611c3a611d1e565b6000805460ff60a01b1916600160a01b1790557f62e78cea01bee320cd4e420270b5ea74000d11b0c9f74754ebdbfc544b05a258611c153390565b600080546001600160a01b038381166001600160a01b0319831681178455604051919092169283917f8be0079c531659141344cd1fd0a4f28419497f9722a3daafe3b4186f6b6457e09190a35050565b600260015403611d175760405162461bcd60e51b815260206004820152601f60248201527f5265656e7472616e637947756172643a207265656e7472616e742063616c6c00604482015260640161076a565b6002600155565b600054600160a01b900460ff16156113e85760405162461bcd60e51b815260206004820152601060248201526f14185d5cd8589b194e881c185d5cd95960821b604482015260640161076a565b604080516001600160a01b038416602482015260448082018490528251808303909101815260649091019091526020810180516001600160e01b031663a9059cbb60e01b1790526119bb908490611e0d565b600054600160a01b900460ff166113e85760405162461bcd60e51b815260206004820152601460248201527314185d5cd8589b194e881b9bdd081c185d5cd95960621b604482015260640161076a565b6000611e62826040518060400160405280602081526020017f5361666545524332303a206c6f772d6c6576656c2063616c6c206661696c6564815250856001600160a01b0316611ee29092919063ffffffff16565b9050805160001480611e83575080806020019051810190611e839190612429565b6119bb5760405162461bcd60e51b815260206004820152602a60248201527f5361666545524332303a204552433230206f7065726174696f6e20646964206e6044820152691bdd081cdd58d8d9595960b21b606482015260840161076a565b6060611ef18484600085611ef9565b949350505050565b606082471015611f5a5760405162461bcd60e51b815260206004820152602660248201527f416464726573733a20696e73756666696369656e742062616c616e636520666f6044820152651c8818d85b1b60d21b606482015260840161076a565b600080866001600160a01b03168587604051611f769190612491565b60006040518083038185875af1925050503d8060008114611fb3576040519150601f19603f3d011682016040523d82523d6000602084013e611fb8565b606091505b5091509150611fc987838387611fd4565b979650505050505050565b6060831561204357825160000361203c576001600160a01b0385163b61203c5760405162461bcd60e51b815260206004820152601d60248201527f416464726573733a2063616c6c20746f206e6f6e2d636f6e7472616374000000604482015260640161076a565b5081611ef1565b611ef183838151156120585781518083602001fd5b8060405162461bcd60e51b815260040161076a91906124ad565b60006020828403121561208457600080fd5b813561ffff8116811461209657600080fd5b9392505050565b6001600160a01b0381168114611b5957600080fd5b8015158114611b5957600080fd5b600080604083850312156120d357600080fd5b82356120de8161209d565b915060208301356120ee816120b2565b809150509250929050565b6000806040838503121561210c57600080fd5b82356001600160e81b03198116811461212457600080fd5b915060208301356120ee8161209d565b60006020828403121561214657600080fd5b81356120968161209d565b80356001600160801b03198116811461216957600080fd5b919050565b80356003811061216957600080fd5b600080600080600060a0868803121561219557600080fd5b61219e86612151565b945060208601356121ae8161209d565b935060408601356121be8161209d565b9250606086013591506121d36080870161216e565b90509295509295909350565b60008083601f8401126121f157600080fd5b50813567ffffffffffffffff81111561220957600080fd5b6020830191508360208260051b850101111561222457600080fd5b9250929050565b60008060008060008060008060008060a08b8d03121561224a57600080fd5b8a3567ffffffffffffffff8082111561226257600080fd5b61226e8e838f016121df565b909c509a5060208d013591508082111561228757600080fd5b6122938e838f016121df565b909a50985060408d01359150808211156122ac57600080fd5b6122b88e838f016121df565b909850965060608d01359150808211156122d157600080fd5b6122dd8e838f016121df565b909650945060808d01359150808211156122f657600080fd5b506123038d828e016121df565b915080935050809150509295989b9194979a5092959850565b60008060006060848603121561233157600080fd5b833561233c8161209d565b9250602084013561234c8161209d565b929592945050506040919091013590565b6001600160e81b03199290921682526001600160a01b0316602082015260400190565b6001600160801b0319861681526001600160a01b038581166020830152841660408201526060810183905260a08101600383106123cd57634e487b7160e01b600052602160045260246000fd5b8260808301529695505050505050565b634e487b7160e01b600052603260045260246000fd5b60006020828403121561240557600080fd5b61209682612151565b60006020828403121561242057600080fd5b6120968261216e565b60006020828403121561243b57600080fd5b8151612096816120b2565b60006001820161246657634e487b7160e01b600052601160045260246000fd5b5060010190565b60005b83811015612488578181015183820152602001612470565b50506000910152565b600082516124a381846020870161246d565b9190910192915050565b60208152600082518060208401526124cc81604085016020870161246d565b601f01601f1916919091016040019291505056fea2646970667358221220ba035ad98af8e3ec1124559290df290ee03c7c783e88eec5d4b15ae018c9ddd464736f6c63430008140033608060405234801561001057600080fd5b5061001a33610030565b6000805460ff60a01b1916905560018055610080565b600080546001600160a01b038381166001600160a01b0319831681178455604051919092169283917f8be0079c531659141344cd1fd0a4f28419497f9722a3daafe3b4186f6b6457e09190a35050565b611bf88061008f6000396000f3fe608060405234801561001057600080fd5b50600436106101425760003560e01c80635c975abb116100b85780638da5cb5b1161007c5780638da5cb5b146103645780639f8a13d714610375578063ab85c5ba14610388578063dff4a5e8146103b6578063f0c1a2c0146103d6578063f2fde38b146103e957600080fd5b80635c975abb1461030c5780636673b0301461031e578063715018a6146103315780638426e6c1146103395780638456cb591461035c57600080fd5b8063236cd7dc1161010a578063236cd7dc14610219578063272979a11461023c5780632b8e8a441461024f5780632f0fbf7b146102be5780633f4ba83a146102f15780634872b0f0146102f957600080fd5b806306cd7eeb146101475780630927f1541461016f57806314bf17b4146101b0578063158a1ca1146101c55780631af827e3146101d8575b600080fd5b61015a610155366004611455565b6103fc565b60405190151581526020015b60405180910390f35b61019861017d366004611481565b6004602052600090815260409020546001600160401b031681565b6040516001600160401b039091168152602001610166565b6101c36101be36600461149e565b61057b565b005b6101c36101d3366004611522565b61069d565b6102016101e6366004611581565b6005602052600090815260409020546001600160a01b031681565b6040516001600160a01b039091168152602001610166565b61022c610227366004611481565b61070d565b6040516101669493929190611688565b6101c361024a3660046116ca565b610816565b6102ae61025d366004611481565b6001600160a01b031660009081526002602090815260408083206006810154600590910154600384528285205460049094529190932054600160d01b90930460ff169390926001600160401b031690565b604051610166949392919061170d565b6102016102cc366004611581565b6001600160e81b0319166000908152600560205260409020546001600160a01b031690565b6101c36109e9565b6101c361030736600461173f565b6109fb565b600054600160a01b900460ff1661015a565b6101c361032c3660046116ca565b610ad4565b6101c3610e63565b61015a610347366004611481565b60066020526000908152604090205460ff1681565b6101c3610e75565b6000546001600160a01b0316610201565b61015a610383366004611481565b610e85565b6103a8610396366004611481565b60036020526000908152604090205481565b604051908152602001610166565b6103c96103c4366004611481565b610ed9565b604051610166919061176d565b6101c36103e4366004611455565b61100d565b6101c36103f7366004611481565b6110f4565b6000610406611172565b6001600160a01b0383166000908152600260205260408120906006820154600160d01b900460ff16600281111561043f5761043f61159e565b1461044e576000915050610575565b6001600160a01b03841660009081526004602052604090205442906201518090610481906001600160401b0316836117d2565b6001600160401b0316106104cf576001600160a01b038516600090815260036020908152604080832083905560049091529020805467ffffffffffffffff19166001600160401b0383161790555b6001600160a01b0385166000908152600360205260408120546104f39086906117f9565b6005840154909150811115610555576040516001600160401b03831681526001600160a01b038716907fbc903a9c39192b871b9d8097e022bf76735429858e1d9ee1b3f06e82fefe47c49060200160405180910390a260009350505050610575565b6001600160a01b0386166000908152600360205260409020555060019150505b92915050565b3360009081526006602052604090205460ff161580156105b55750336105a96000546001600160a01b031690565b6001600160a01b031614155b156105d2576040516282b42960e81b815260040160405180910390fd5b6001600160a01b038084166000908152600260205260409020805490911661060d5760405163e6c4247b60e01b815260040160405180910390fd5b60068101805460ff60d01b1916600160d01b17905560078101805467ffffffffffffffff60401b1916600160401b426001600160401b03811691909102919091179091556040516001600160a01b038616917f9b6d178b854a30016640ab1843e5341333b7401798af06afcf3184c910ffd1979161068f91879187919061180c565b60405180910390a250505050565b6106a56111bf565b6106ae82611219565b6001600160a01b038216600081815260066020908152604091829020805460ff191685151590811790915591519182527f677b149c7133585df1cf5e5f8402b5f5da9e312aadb23e03905504a6a880bd24910160405180910390a25050565b60026020818152600092835260409283902080548451610140810186526001830180548252838601549482019490945260038084015496820196909652600483015460f081901b6001600160f01b031916606083015262010000900460e81b6001600160e81b0319166080820152600583015460a082015260068301549586900b60c0820152640100000000860461ffff1660e08201526001600160a01b03600160301b87048116610100830152909116949193909291610120840191600160d01b90910460ff16908111156107e5576107e561159e565b60028111156107f6576107f661159e565b9052506007909101546001600160401b0380821691600160401b90041684565b6001600160a01b038083166000908152600260205260409020548391163314610851576040516282b42960e81b815260040160405180910390fd5b610859611172565b61086283611219565b61086f8260a00135611240565b600061088361012084016101008501611481565b6001600160a01b0316036108aa5760405163e6c4247b60e01b815260040160405180910390fd5b6001600160a01b0380841660009081526002602052604090206005810154600682015491929091600160301b90041684600184016108e88282611919565b505060078301805467ffffffffffffffff60401b1916600160401b426001600160401b0316021790556001600160a01b0386167fcc31ec6397e964d252277679f5f8e7c6d7d3b1f4f4e5a1655862ed81cce617b860a087013561095361012089016101008a01611481565b6109656101408a016101208b01611a49565b426040516109769493929190611a66565b60405180910390a28460a0013582146109e1576040805183815260a08701356020820152426001600160401b03168183015290516001600160a01b038816917fc47fcbaae7415e86da3a8e6894fb6035478a65a78d6a6e8d54d1af15dcaec454919081900360600190a25b505050505050565b6109f16111bf565b6109f9611274565b565b3360009081526006602052604090205460ff16158015610a35575033610a296000546001600160a01b031690565b6001600160a01b031614155b15610a52576040516282b42960e81b815260040160405180910390fd5b610a5b81611219565b6001600160e81b0319821660008181526005602090815260409182902080546001600160a01b0319166001600160a01b03861690811790915591516001600160401b03421681529192917ff9d8226322c8a75a81f7a9399472a3567d65e6aa83c86cea6762141477922707910160405180910390a35050565b3360009081526006602052604090205460ff16158015610b0e575033610b026000546001600160a01b031690565b6001600160a01b031614155b15610b2b576040516282b42960e81b815260040160405180910390fd5b610b33611172565b610b3c82611219565b610b498160a00135611240565b6001600160a01b038281166000908152600260205260409020541615610b8257604051632bf773b360e11b815260040160405180910390fd5b6000610b9661012083016101008401611481565b6001600160a01b031603610bbd5760405163e6c4247b60e01b815260040160405180910390fd5b6040518060800160405280836001600160a01b0316815260200182803603810190610be89190611af9565b81526001600160401b03421660208083018290526040928301919091526001600160a01b038086166000908152600280845290849020855181549084166001600160a01b03199091161781558584015180516001830190815594810151828401559485015160038201556060850151600482018054608088015160e81c620100000264ffffffffff1990911660f09390931c9290921791909117905560a0850151600582015560c085015160068201805460e0880151610100890151909616600160301b026601000000000000600160d01b031961ffff979097166401000000000265ffffffffffff1990921663ffffffff909416939093171794851682178155610120870151929695949293909260ff60d01b199092166601000000000000600160d81b03199092169190911790600160d01b908490811115610d2e57610d2e61159e565b02179055505050604082810151600790920180546060909401516001600160401b03908116600160401b026fffffffffffffffffffffffffffffffff1990951693811693909317939093179092556001600160a01b03841660009081526004602090815283822080544290941667ffffffffffffffff199490941693909317909255600390915290812055610dc960a0820160808301611581565b6001600160e81b031916610de36080830160608401611ba5565b6001600160f01b0319166001600160a01b0384167f5d9c813dc44ecdc2129aa850b45f43f5335161880f2ee6bf7363193e9028330460a0850135610e2f61012087016101008801611481565b604080519283526001600160a01b0390911660208301526001600160401b0342169082015260600160405180910390a45050565b610e6b6111bf565b6109f960006112c9565b610e7d6111bf565b6109f9611319565b6001600160a01b0380821660009081526002602052604081208054919290911615801590610ed2575060006006820154600160d01b900460ff166002811115610ed057610ed061159e565b145b9392505050565b610ee16113ac565b6001600160a01b038281166000908152600260208181526040928390208351608080820186528254871682528551610140810187526001840180548252848701548287015260038086015498830198909852600485015460f081901b6001600160f01b031916606084015262010000900460e81b6001600160e81b03191692820192909252600584015460a082015260068401549687900b60c0820152640100000000870461ffff1660e0820152600160301b8704909716610100880152909591949286019391929091610120840191600160d01b900460ff1690811115610fcb57610fcb61159e565b6002811115610fdc57610fdc61159e565b9052508152600791909101546001600160401b038082166020840152600160401b9091041660409091015292915050565b6001600160a01b038083166000908152600260205260409020548391163314611048576040516282b42960e81b815260040160405180910390fd5b611050611172565b61105982611240565b6001600160a01b0383166000818152600260209081526040918290206005810180549087905560078201805467ffffffffffffffff60401b1916600160401b426001600160401b03169081029190911790915584518281529384018890529383019390935292907fc47fcbaae7415e86da3a8e6894fb6035478a65a78d6a6e8d54d1af15dcaec4549060600160405180910390a25050505050565b6110fc6111bf565b6001600160a01b0381166111665760405162461bcd60e51b815260206004820152602660248201527f4f776e61626c653a206e6577206f776e657220697320746865207a65726f206160448201526564647265737360d01b60648201526084015b60405180910390fd5b61116f816112c9565b50565b600054600160a01b900460ff16156109f95760405162461bcd60e51b815260206004820152601060248201526f14185d5cd8589b194e881c185d5cd95960821b604482015260640161115d565b6000546001600160a01b031633146109f95760405162461bcd60e51b815260206004820181905260248201527f4f776e61626c653a2063616c6c6572206973206e6f7420746865206f776e6572604482015260640161115d565b6001600160a01b03811661116f5760405163e6c4247b60e01b815260040160405180910390fd5b6305f5e100811080611256575064174876e80081115b1561116f5760405163162908e360e11b815260040160405180910390fd5b61127c61135c565b6000805460ff60a01b191690557f5db9ee0a495bf2e6ff9c91a7834c1ba4fdd244a5e8aa4e537bd38aeae4b073aa335b6040516001600160a01b03909116815260200160405180910390a1565b600080546001600160a01b038381166001600160a01b0319831681178455604051919092169283917f8be0079c531659141344cd1fd0a4f28419497f9722a3daafe3b4186f6b6457e09190a35050565b611321611172565b6000805460ff60a01b1916600160a01b1790557f62e78cea01bee320cd4e420270b5ea74000d11b0c9f74754ebdbfc544b05a2586112ac3390565b600054600160a01b900460ff166109f95760405162461bcd60e51b815260206004820152601460248201527314185d5cd8589b194e881b9bdd081c185d5cd95960621b604482015260640161115d565b604051806080016040528060006001600160a01b0316815260200161141c6040805161014081018252600080825260208201819052918101829052606081018290526080810182905260a0810182905260c0810182905260e0810182905261010081018290529061012082015290565b815260006020820181905260409091015290565b6001600160a01b038116811461116f57600080fd5b803561145081611430565b919050565b6000806040838503121561146857600080fd5b823561147381611430565b946020939093013593505050565b60006020828403121561149357600080fd5b8135610ed281611430565b6000806000604084860312156114b357600080fd5b83356114be81611430565b925060208401356001600160401b03808211156114da57600080fd5b818601915086601f8301126114ee57600080fd5b8135818111156114fd57600080fd5b87602082850101111561150f57600080fd5b6020830194508093505050509250925092565b6000806040838503121561153557600080fd5b823561154081611430565b91506020830135801515811461155557600080fd5b809150509250929050565b6001600160e81b03198116811461116f57600080fd5b803561145081611560565b60006020828403121561159357600080fd5b8135610ed281611560565b634e487b7160e01b600052602160045260246000fd5b600381106115d257634e487b7160e01b600052602160045260246000fd5b9052565b805182526020810151602083015260408101516040830152606081015161160960608401826001600160f01b0319169052565b50608081015161162560808401826001600160e81b0319169052565b5060a081015160a083015260c081015161164460c084018260030b9052565b5060e081015161165a60e084018261ffff169052565b50610100818101516001600160a01b03169083015261012080820151611682828501826115b4565b50505050565b6001600160a01b03851681526101a081016116a660208301866115d6565b6001600160401b038085166101608401528084166101808401525095945050505050565b6000808284036101608112156116df57600080fd5b83356116ea81611430565b9250610140601f19820112156116ff57600080fd5b506020830190509250929050565b6080810161171b82876115b4565b8460208301528360408301526001600160401b038316606083015295945050505050565b6000806040838503121561175257600080fd5b823561175d81611560565b9150602083013561155581611430565b81516001600160a01b031681526020808301516101a0830191611792908401826115d6565b5060408301516001600160401b039081166101608401526060909301519092166101809091015290565b634e487b7160e01b600052601160045260246000fd5b6001600160401b038281168282160390808211156117f2576117f26117bc565b5092915050565b80820180821115610575576105756117bc565b604081528260408201528284606083013760006060848301015260006060601f19601f86011683010190506001600160401b0383166020830152949350505050565b6001600160f01b03198116811461116f57600080fd5b600081356105758161184e565b6000813561057581611560565b8060030b811461116f57600080fd5b600081356105758161187e565b61ffff8116811461116f57600080fd5b600081356105758161189a565b6000813561057581611430565b6003811061116f57600080fd5b60008135610575816118c4565b600382106118fc57634e487b7160e01b600052602160045260246000fd5b805460ff60d01b191660d09290921b60ff60d01b16919091179055565b8135815560208201356001820155604082013560028201556003810161195661194460608501611864565b825461ffff191660f09190911c178255565b61198161196560808501611871565b825464ffffff0000191660d89190911c64ffffff000016178255565b5060a08201356004820155600581016119b661199f60c0850161188d565b825463ffffffff191663ffffffff91909116178255565b6119e36119c560e085016118aa565b825465ffff00000000191660209190911b65ffff0000000016178255565b611a236119f361010085016118b7565b8280546601000000000000600160d01b03191660309290921b6601000000000000600160d01b0316919091179055565b611a39611a3361012085016118d1565b826118de565b505050565b8035611450816118c4565b600060208284031215611a5b57600080fd5b8135610ed2816118c4565b8481526001600160a01b038416602082015260808101611a8960408301856115b4565b6001600160401b038316606083015295945050505050565b60405161014081016001600160401b0381118282101715611ad257634e487b7160e01b600052604160045260246000fd5b60405290565b80356114508161184e565b80356114508161187e565b80356114508161189a565b60006101408284031215611b0c57600080fd5b611b14611aa1565b823581526020830135602082015260408301356040820152611b3860608401611ad8565b6060820152611b4960808401611576565b608082015260a083013560a0820152611b6460c08401611ae3565b60c0820152611b7560e08401611aee565b60e0820152610100611b88818501611445565b90820152610120611b9a848201611a3e565b908201529392505050565b600060208284031215611bb757600080fd5b8135610ed28161184e56fea2646970667358221220b7a4deac35351d6eb321c8279610d8010e3913fcfe052f182f1438b38f1b224864736f6c6343000814003360c06040526002805461ffff191660321790553480156200001f57600080fd5b50604051620024c4380380620024c4833981016040819052620000429162000103565b6200004d3362000096565b6000805460ff60a01b19169055600180556001600160a01b0392831660805290821660a0526002805491909216620100000262010000600160b01b03199091161790556200014d565b600080546001600160a01b038381166001600160a01b0319831681178455604051919092169283917f8be0079c531659141344cd1fd0a4f28419497f9722a3daafe3b4186f6b6457e09190a35050565b80516001600160a01b0381168114620000fe57600080fd5b919050565b6000806000606084860312156200011957600080fd5b6200012484620000e6565b92506200013460208501620000e6565b91506200014460408501620000e6565b90509250925092565b60805160a051612320620001a46000396000818161021c0152818161061301528181611300015281816116ab01526116e501526000818161018e015281816107e4015281816108d3015261098a01526123206000f3fe608060405234801561001057600080fd5b50600436106101585760003560e01c8063a84918e9116100c3578063e63ea4081161007c578063e63ea4081461037e578063e74b981b14610391578063e845ccbb146103a4578063f07319be146103c4578063f2fde38b146103e4578063f79d862d146103f757600080fd5b8063a84918e9146102b2578063adb3c19c146102c5578063b736ed16146102d8578063c5c7312414610302578063c987744a1461032a578063e4467f351461036b57600080fd5b8063469048401161011557806346904840146102485780635c975abb146102615780635fc44e821461027e578063715018a6146102915780638456cb59146102995780638da5cb5b146102a157600080fd5b8063061299261461015d57806323cf41c8146101895780632892dfcd146101c857806335659fb8146101f65780633e413bee146102175780633f4ba83a1461023e575b600080fd5b61017061016b366004611b15565b61040a565b6040516101809493929190611b61565b60405180910390f35b6101b07f000000000000000000000000000000000000000000000000000000000000000081565b6040516001600160a01b039091168152602001610180565b6101e86101d6366004611ba9565b60056020526000908152604090205481565b604051908152602001610180565b6002546102049061ffff1681565b60405161ffff9091168152602001610180565b6101b07f000000000000000000000000000000000000000000000000000000000000000081565b6102466104a7565b005b6002546101b0906201000090046001600160a01b031681565b600054600160a01b900460ff166040519015158152602001610180565b61024661028c366004611bc6565b6104b9565b610246610718565b61024661072a565b6000546001600160a01b03166101b0565b6102466102c0366004611b15565b61073a565b6102466102d3366004611c12565b6107a2565b6101e86102e6366004611b15565b6001600160801b03191660009081526004602052604090205490565b610315610310366004611b15565b610c6b565b60405161018099989796959493929190611cd8565b610353610338366004611ba9565b6006602052600090815260409020546001600160401b031681565b6040516001600160401b039091168152602001610180565b610246610379366004611d65565b610d65565b61024661038c366004611d82565b610e28565b61024661039f366004611ba9565b610e44565b6101e86103b2366004611b15565b60046020526000908152604090205481565b6103d76103d2366004611b15565b610e7f565b6040516101809190611da2565b6102466103f2366004611ba9565b6110a1565b610246610405366004611e69565b611117565b6001600160801b0319811660009081526003602052604081205481908190819085906001600160a01b03166104525760405163d36d896560e01b815260040160405180910390fd5b505050506001600160801b03199190911660009081526003602081905260409091209081015460029091015460ff610100830416939092506001600160401b03600160501b8304811692600160901b90041690565b6104af6113c1565b6104b761141b565b565b6104c1611470565b6001600160801b0319831660009081526003602052604090205483906001600160a01b03166105035760405163d36d896560e01b815260040160405180910390fd5b61050b6114c9565b6001600160801b03198416600090815260036020526040902060016003820154610100900460ff16600481111561054457610544611b37565b14158015610570575060026003820154610100900460ff16600481111561056d5761056d611b37565b14155b1561058d576040516282b42960e81b815260040160405180910390fd5b80600201548311156105b25760405163162908e360e11b815260040160405180910390fd5b60038101546105d490600160501b90046001600160401b031662278d00611ea9565b6001600160401b0316426001600160401b031611156106065760405163559895a360e01b815260040160405180910390fd5b61063a6001600160a01b037f0000000000000000000000000000000000000000000000000000000000000000168585611516565b806002015483036106575760038101805461ff0019166104001790555b604080516001600160a01b03861660208201529081018490526001600160401b034216606082015260800160408051601f1981840301815282825280516020918201206001600160801b031989166000818152600490935292909120556001600160a01b038616917f878e558977f459b19c4fd64eab00485218ee40f689174a9935615e5f0c094fa49061070090879042909182526001600160401b0316602082015260400190565b60405180910390a3505061071360018055565b505050565b6107206113c1565b6104b76000611579565b6107326113c1565b6104b76115c9565b610742611470565b6001600160801b0319811660009081526003602052604090205481906001600160a01b03166107845760405163d36d896560e01b815260040160405180910390fd5b61078c6114c9565b6107958261160c565b5061079f60018055565b50565b6107aa6114c9565b6107b3846117bd565b6107bc836117bd565b6107c5826117e4565b604051639f8a13d760e01b81526001600160a01b0385811660048301527f00000000000000000000000000000000000000000000000000000000000000001690639f8a13d790602401602060405180830381865afa15801561082b573d6000803e3d6000fd5b505050506040513d601f19601f8201168201806040525081019061084f9190611ed0565b61086c5760405163d5eb2b5560e01b815260040160405180910390fd5b6001600160801b031985166000908152600360205260409020546001600160a01b0316156108ad57604051632bf773b360e11b815260040160405180910390fd5b6040516306cd7eeb60e01b81526001600160a01b038581166004830152602482018490527f000000000000000000000000000000000000000000000000000000000000000016906306cd7eeb906044016020604051808303816000875af115801561091c573d6000803e3d6000fd5b505050506040513d601f19601f820116820180604052508101906109409190611ed0565b610a3f57604051631bfe94bd60e31b81526001600160a01b0380861660048301819052917f709a04c1f2d220e54283295686b4ea519d3f2e3707391a6977a0e5458889b3c19185917f00000000000000000000000000000000000000000000000000000000000000009091169063dff4a5e8906024016101a060405180830381865afa1580156109d4573d6000803e3d6000fd5b505050506040513d601f19601f820116820180604052508101906109f89190611fcd565b60209081015160a0015160408051938452918301526001600160401b0342169082015260600160405180910390a260405163a74c1c5f60e01b815260040160405180910390fd5b604051806101200160405280856001600160a01b03168152602001846001600160a01b03168152602001838152602001826002811115610a8157610a81611b37565b8152602001600081526001600160401b034216602080830191909152600060408084018290526060808501839052815180850183528381526080909501949094526001600160801b03198a168252600380845291819020855181546001600160a01b039182166001600160a01b0319918216178355948701516001808401805492909316919096161790559085015160028083019190915593850151918101805491949293909260ff19909216918490811115610b4057610b40611b37565b0217905550608082015160038201805461ff001916610100836004811115610b6a57610b6a611b37565b021790555060a082015160038201805460c085015160e086015171ffffffffffffffffffffffffffffffff000019909216620100006001600160401b039586160267ffffffffffffffff60501b191617600160501b918516919091021767ffffffffffffffff60901b1916600160901b93909116929092029190911790556101008201516004820190610bfd9082612157565b50905050826001600160a01b0316846001600160a01b0316866fffffffffffffffffffffffffffffffff19167faded44f53b75a71d455d307b0a76fedb05f2971e4ea9e003b2bfa1a946ccb9cf858542604051610c5c93929190612216565b60405180910390a45050505050565b6003602081905260009182526040909120805460018201546002830154938301546004840180546001600160a01b0394851696949093169460ff808416946101008504909116936001600160401b03620100008204811694600160501b8304821694600160901b90930490911692610ce2906120d5565b80601f0160208091040260200160405190810160405280929190818152602001828054610d0e906120d5565b8015610d5b5780601f10610d3057610100808354040283529160200191610d5b565b820191906000526020600020905b815481529060010190602001808311610d3e57829003601f168201915b5050505050905089565b610d6d6113c1565b60648161ffff161115610dbe5760405162461bcd60e51b81526020600482015260146024820152734665652063616e6e6f742065786365656420312560601b60448201526064015b60405180910390fd5b6002805461ffff83811661ffff198316811790935560408051919092168082526020820193909352426001600160401b0316918101919091527f4d0df11d2215e9a97a53414300291da7786bc38ef97920235ce8fea21cdab0269060600160405180910390a15050565b610e306113c1565b6107136001600160a01b0384168383611516565b610e4c6113c1565b610e55816117bd565b600280546001600160a01b03909216620100000262010000600160b01b0319909216919091179055565b610ed060408051610120810182526000808252602082018190529181018290529060608201908152602001600081526000602082018190526040820181905260608083019190915260809091015290565b6001600160801b0319821660009081526003602052604090205482906001600160a01b0316610f125760405163d36d896560e01b815260040160405180910390fd5b6001600160801b0319831660009081526003602081815260409283902083516101208101855281546001600160a01b0390811682526001830154169281019290925260028082015494830194909452918201549092606084019160ff1690811115610f7f57610f7f611b37565b6002811115610f9057610f90611b37565b81526020016003820160019054906101000a900460ff166004811115610fb857610fb8611b37565b6004811115610fc957610fc9611b37565b815260038201546001600160401b0362010000820481166020840152600160501b820481166040840152600160901b909104166060820152600482018054608090920191611016906120d5565b80601f0160208091040260200160405190810160405280929190818152602001828054611042906120d5565b801561108f5780601f106110645761010080835404028352916020019161108f565b820191906000526020600020905b81548152906001019060200180831161107257829003601f168201915b50505050508152505091505b50919050565b6110a96113c1565b6001600160a01b03811661110e5760405162461bcd60e51b815260206004820152602660248201527f4f776e61626c653a206e6577206f776e657220697320746865207a65726f206160448201526564647265737360d01b6064820152608401610db5565b61079f81611579565b61111f611470565b6001600160801b0319821660009081526003602052604090205482906001600160a01b03166111615760405163d36d896560e01b815260040160405180910390fd5b6111696114c9565b6001600160801b031983166000908152600360205260408120906003820154610100900460ff1660048111156111a1576111a1611b37565b146111bf57604051632bf773b360e11b815260040160405180910390fd5b806002015483146111e35760405163162908e360e11b815260040160405180910390fd5b6003810154611204906201000090046001600160401b031662093a80611ea9565b6001600160401b0316426001600160401b031611156112f357604080518082018252600d81526c13d491115497d1561412549151609a1b60209182015281516060810190925260288083527fa48c42e7de0bd8fd101e826f142b7eb62a1270ec4933a106cef8a8e15ce5719a926001600160801b03198816927fbf8234647b7172a228e0f0df08220c61199de02bc6b1ea20eb65bfe846980e8992600592916122c39083013980516020918201206040805160ff9094168452918301526001600160401b0342169082015260600160405180910390a360405163559895a360e01b815260040160405180910390fd5b6113286001600160a01b037f000000000000000000000000000000000000000000000000000000000000000016333086611805565b6003810180546001600160401b034216600160501b810271ffffffffffffffff0000000000000000ff0019909216919091176101001790915560408051858152602081019290925233916001600160801b03198716917ffffabca3e800567ff5f5e06b8f6041b6da08ad3311ec4724fbc2f3cda0f26f9e910160405180910390a36113b28461160c565b50506113bd60018055565b5050565b6000546001600160a01b031633146104b75760405162461bcd60e51b815260206004820181905260248201527f4f776e61626c653a2063616c6c6572206973206e6f7420746865206f776e65726044820152606401610db5565b611423611843565b6000805460ff60a01b191690557f5db9ee0a495bf2e6ff9c91a7834c1ba4fdd244a5e8aa4e537bd38aeae4b073aa335b6040516001600160a01b03909116815260200160405180910390a1565b6002600154036114c25760405162461bcd60e51b815260206004820152601f60248201527f5265656e7472616e637947756172643a207265656e7472616e742063616c6c006044820152606401610db5565b6002600155565b600054600160a01b900460ff16156104b75760405162461bcd60e51b815260206004820152601060248201526f14185d5cd8589b194e881c185d5cd95960821b6044820152606401610db5565b6040516001600160a01b03831660248201526044810182905261071390849063a9059cbb60e01b906064015b60408051601f198184030181529190526020810180516001600160e01b03166001600160e01b031990931692909217909152611893565b600080546001600160a01b038381166001600160a01b0319831681178455604051919092169283917f8be0079c531659141344cd1fd0a4f28419497f9722a3daafe3b4186f6b6457e09190a35050565b6115d16114c9565b6000805460ff60a01b1916600160a01b1790557f62e78cea01bee320cd4e420270b5ea74000d11b0c9f74754ebdbfc544b05a2586114533390565b6001600160801b03198116600090815260036020526040902060016003820154610100900460ff16600481111561164557611645611b37565b1461166357604051632bf773b360e11b815260040160405180910390fd5b6002808201549054600090612710906116809061ffff1684612241565b61168a919061225e565b905060006116988284612280565b84549091506116d4906001600160a01b037f00000000000000000000000000000000000000000000000000000000000000008116911683611516565b600254611714906001600160a01b037f00000000000000000000000000000000000000000000000000000000000000008116916201000090041684611516565b6003840180546001600160401b034216600160901b810279ffffffffffffffff00000000000000000000000000000000ff001990921691909117610200179091558454604080518681526020810186905290810184905260608101929092526001600160a01b0316906001600160801b03198716907f475c6ae21112f4224b71f2f80ed3f4c4c93c00187163af205dba60aba00b736e9060800160405180910390a35050505050565b6001600160a01b03811661079f5760405163e6c4247b60e01b815260040160405180910390fd5b8060000361079f5760405163162908e360e11b815260040160405180910390fd5b6040516001600160a01b038085166024830152831660448201526064810182905261183d9085906323b872dd60e01b90608401611542565b50505050565b600054600160a01b900460ff166104b75760405162461bcd60e51b815260206004820152601460248201527314185d5cd8589b194e881b9bdd081c185d5cd95960621b6044820152606401610db5565b60006118e8826040518060400160405280602081526020017f5361666545524332303a206c6f772d6c6576656c2063616c6c206661696c6564815250856001600160a01b03166119689092919063ffffffff16565b90508051600014806119095750808060200190518101906119099190611ed0565b6107135760405162461bcd60e51b815260206004820152602a60248201527f5361666545524332303a204552433230206f7065726174696f6e20646964206e6044820152691bdd081cdd58d8d9595960b21b6064820152608401610db5565b6060611977848460008561197f565b949350505050565b6060824710156119e05760405162461bcd60e51b815260206004820152602660248201527f416464726573733a20696e73756666696369656e742062616c616e636520666f6044820152651c8818d85b1b60d21b6064820152608401610db5565b600080866001600160a01b031685876040516119fc9190612293565b60006040518083038185875af1925050503d8060008114611a39576040519150601f19603f3d011682016040523d82523d6000602084013e611a3e565b606091505b5091509150611a4f87838387611a5a565b979650505050505050565b60608315611ac9578251600003611ac2576001600160a01b0385163b611ac25760405162461bcd60e51b815260206004820152601d60248201527f416464726573733a2063616c6c20746f206e6f6e2d636f6e74726163740000006044820152606401610db5565b5081611977565b6119778383815115611ade5781518083602001fd5b8060405162461bcd60e51b8152600401610db591906122af565b80356001600160801b031981168114611b1057600080fd5b919050565b600060208284031215611b2757600080fd5b611b3082611af8565b9392505050565b634e487b7160e01b600052602160045260246000fd5b60058110611b5d57611b5d611b37565b9052565b60808101611b6f8287611b4d565b60208201949094526001600160401b0392831660408201529116606090910152919050565b6001600160a01b038116811461079f57600080fd5b600060208284031215611bbb57600080fd5b8135611b3081611b94565b600080600060608486031215611bdb57600080fd5b611be484611af8565b92506020840135611bf481611b94565b929592945050506040919091013590565b6003811061079f57600080fd5b600080600080600060a08688031215611c2a57600080fd5b611c3386611af8565b94506020860135611c4381611b94565b93506040860135611c5381611b94565b9250606086013591506080860135611c6a81611c05565b809150509295509295909350565b60038110611b5d57611b5d611b37565b60005b83811015611ca3578181015183820152602001611c8b565b50506000910152565b60008151808452611cc4816020860160208601611c88565b601f01601f19169290920160200192915050565b6001600160a01b038a8116825289166020820152604081018890526000610120611d05606084018a611c78565b611d126080840189611b4d565b6001600160401b0387811660a085015286811660c0850152851660e08401526101008301819052611d4581840185611cac565b9c9b505050505050505050505050565b61ffff8116811461079f57600080fd5b600060208284031215611d7757600080fd5b8135611b3081611d55565b600080600060608486031215611d9757600080fd5b8335611be481611b94565b60208152611dbc6020820183516001600160a01b03169052565b60006020830151611dd860408401826001600160a01b03169052565b50604083015160608301526060830151611df56080840182611c78565b506080830151611e0860a0840182611b4d565b5060a08301516001600160401b03811660c08401525060c08301516001600160401b03811660e08401525060e0830151610100611e4f818501836001600160401b03169052565b840151610120848101529050611977610140840182611cac565b60008060408385031215611e7c57600080fd5b611e8583611af8565b946020939093013593505050565b634e487b7160e01b600052601160045260246000fd5b6001600160401b03818116838216019080821115611ec957611ec9611e93565b5092915050565b600060208284031215611ee257600080fd5b81518015158114611b3057600080fd5b634e487b7160e01b600052604160045260246000fd5b604051608081016001600160401b0381118282101715611f2a57611f2a611ef2565b60405290565b60405161014081016001600160401b0381118282101715611f2a57611f2a611ef2565b8051611b1081611b94565b80516001600160f01b031981168114611b1057600080fd5b80516001600160e81b031981168114611b1057600080fd5b8051600381900b8114611b1057600080fd5b8051611b1081611d55565b8051611b1081611c05565b80516001600160401b0381168114611b1057600080fd5b60008183036101a0811215611fe157600080fd5b611fe9611f08565b8351611ff481611b94565b8152610140601f19830181131561200a57600080fd5b612012611f30565b925060208501518352604085015160208401526060850151604084015261203b60808601611f5e565b606084015261204c60a08601611f76565b608084015260c085015160a084015261206760e08601611f8e565b60c084015261010061207a818701611fa0565b60e085015261012061208d818801611f53565b8286015261209c838801611fab565b818601525050508160208201526120b66101608501611fb6565b60408201526120c86101808501611fb6565b6060820152949350505050565b600181811c908216806120e957607f821691505b60208210810361109b57634e487b7160e01b600052602260045260246000fd5b601f82111561071357600081815260208120601f850160051c810160208610156121305750805b601f850160051c820191505b8181101561214f5782815560010161213c565b505050505050565b81516001600160401b0381111561217057612170611ef2565b6121848161217e84546120d5565b84612109565b602080601f8311600181146121b957600084156121a15750858301515b600019600386901b1c1916600185901b17855561214f565b600085815260208120601f198616915b828110156121e8578886015182559484019460019091019084016121c9565b50858210156122065787850151600019600388901b60f8161c191681555b5050505050600190811b01905550565b8381526060810161222a6020830185611c78565b6001600160401b0383166040830152949350505050565b808202811582820484141761225857612258611e93565b92915050565b60008261227b57634e487b7160e01b600052601260045260246000fd5b500490565b8181038181111561225857612258611e93565b600082516122a5818460208701611c88565b9190910192915050565b602081526000611b306020830184611cac56fe4f72646572207061796d656e7420617474656d707465642061667465722065787069726174696f6ea2646970667358221220d2b2aaaa3f8b92f0676083d755f4fa06a6adae496e13d41b5facb27bb02eb42564736f6c63430008140033608060405234801561001057600080fd5b5061001a33610030565b6000805460ff60a01b1916905560018055610080565b600080546001600160a01b038381166001600160a01b0319831681178455604051919092169283917f8be0079c531659141344cd1fd0a4f28419497f9722a3daafe3b4186f6b6457e09190a35050565b611bdd8061008f6000396000f3fe608060405234801561001057600080fd5b50600436106101375760003560e01c8063715018a6116100b8578063aace7eb61161007c578063aace7eb614610353578063b26f2d811461047f578063c2077de214610531578063c7a6de4d146105b6578063cb9d3650146105c9578063f2fde38b146105dc57600080fd5b8063715018a6146102d35780638456cb59146102db5780638da5cb5b146102e3578063a4ad859d146102f4578063a790a9131461031457600080fd5b806334870972116100ff57806334870972146102645780633f4ba83a146102775780634872b0f01461027f5780635c975abb1461029257806361c992a3146102b057600080fd5b80631256372f1461013c57806314d7d30e146101ba57806317161982146101cf5780631af827e3146101f05780632f0fbf7b14610231575b600080fd5b61018961014a36600461181e565b6001600160e81b031916600090815260026020526040902080546001909101549091600160401b82046001600160a01b0316916001600160401b031690565b604080519384526001600160a01b0390921660208401526001600160401b0316908201526060015b60405180910390f35b6101cd6101c8366004611839565b6105ef565b005b6101e26101dd366004611839565b6108b8565b6040519081526020016101b1565b6102196101fe36600461181e565b6006602052600090815260409020546001600160a01b031681565b6040516001600160a01b0390911681526020016101b1565b61021961023f36600461181e565b6001600160e81b0319166000908152600660205260409020546001600160a01b031690565b6101e2610272366004611839565b61095e565b6101cd6109f2565b6101cd61028d36600461187a565b610a04565b600054600160a01b900460ff165b60405190151581526020016101b1565b6102a06102be3660046118ad565b60056020526000908152604090205460ff1681565b6101cd610bce565b6101cd610be0565b6000546001600160a01b0316610219565b6103076103023660046118c8565b610bf0565b6040516101b19190611905565b610327610322366004611839565b610e1a565b604080519384526001600160401b0390921660208401526001600160a01b0316908201526060016101b1565b61041c610361366004611970565b6040805160a081018252600080825260208201819052918101829052606081018290526080810191909152506001600160a01b0391821660009081526003602090815260408083206001600160e81b03199485168452825291829020825160a081018452815460f081901b6001600160f01b031916825262010000900460e81b90941691840191909152600181015491830191909152600201546001600160401b0381166060830152600160401b9004909116608082015290565b6040516101b1919081516001600160f01b03191681526020808301516001600160e81b03191690820152604080830151908201526060808301516001600160401b0316908201526080918201516001600160a01b03169181019190915260a00190565b6104e361048d366004611970565b600360209081526000928352604080842090915290825290208054600182015460029092015460f082901b926201000090920460e81b91906001600160401b03811690600160401b90046001600160a01b031685565b604080516001600160f01b031990961686526001600160e81b03199094166020860152928401919091526001600160401b031660608301526001600160a01b0316608082015260a0016101b1565b61057e61053f36600461181e565b600260205260009081526040902080546001909101546001600160401b03811690600160401b81046001600160a01b031690600160e01b900460ff1684565b604080519485526001600160401b0390931660208501526001600160a01b0390911691830191909152151560608201526080016101b1565b6101cd6105c436600461199a565b610e70565b61041c6105d7366004611970565b610eac565b6101cd6105ea3660046118ad565b611138565b3360009081526005602052604090205460ff1661061e576040516282b42960e81b815260040160405180910390fd5b610627816111b1565b6001600160e81b031982166000908152600660205260409020546001600160a01b0316806106685760405163e6c4247b60e01b815260040160405180910390fd5b6001600160e81b031983166000908152600260205260409020805461068d85856111e2565b61079b576001600160e81b031985167fcb1ab6b450c0283af3c940a45a71b559257f55f7c4bfb6239a7b02b2a645ca4e856106c788611270565b426040516106d7939291906119cb565b60405180910390a2604080518082018252600c81526b524154455f414e4f4d414c5960a01b60209182015281516060810190925260258083527feefb48f901ced130b00851eb7ec936d7bc09527b54dfd88f68407109e528dbcf926001600160a01b038716927fbf8234647b7172a228e0f0df08220c61199de02bc6b1ea20eb65bfe846980e899260079291611b839083013980516020918201206040805160ff9094168452918301526001600160401b0342169082015260600160405180910390a35b83825560018083018054600160e01b426001600160401b039081166001600160e01b0319938416811733600160401b8181029290921760ff60e01b1916949094179095556001600160e81b03198b16600090815260046020908152604080832081516060810183528e81528084019586529182019687528054808b018255908452919092209151600290910290910190815590519501805492519590911691909216176001600160a01b0390931690910291909117905561085b8561132e565b6040805182815260208101869052426001600160401b031681830152905133916001600160e81b03198816917fb7e7c7adadae3a279c5b5685b801cd8c6b5ea8fc11a1aacece554f46839e6dc29181900360600190a35050505050565b6001600160e81b0319821660009081526002602052604081206001810154600160e01b900460ff166109265760405162461bcd60e51b815260206004820152601260248201527152617465206e6f7420617661696c61626c6560701b60448201526064015b60405180910390fd5b80546000906305f5e1009061093b9086611a47565b6109459190611a5e565b905061095361271082611a5e565b925050505b92915050565b6001600160e81b0319821660009081526002602052604081206001810154600160e01b900460ff166109c75760405162461bcd60e51b815260206004820152601260248201527152617465206e6f7420617661696c61626c6560701b604482015260640161091d565b80546000906109da856305f5e100611a47565b6109e49190611a5e565b905061095381612710611a47565b6109fa6115a2565b610a026115fc565b565b610a0c6115a2565b610a1581611651565b6000819050806001600160a01b031663feaf968c6040518163ffffffff1660e01b815260040160a060405180830381865afa925050508015610a74575060408051601f3d908101601f19168201909252610a7191810190611a9a565b60015b610ac05760405162461bcd60e51b815260206004820152601760248201527f496e76616c6964206f7261636c6520636f6e7472616374000000000000000000604482015260640161091d565b60008413610b075760405162461bcd60e51b8152602060048201526014602482015273496e76616c6964206f7261636c6520707269636560601b604482015260640161091d565b60008211610b505760405162461bcd60e51b815260206004820152601660248201527513dc9858db19481b9bdd081a5b9a5d1a585b1a5e995960521b604482015260640161091d565b505050506001600160e81b0319841660008181526006602090815260409182902080546001600160a01b0319166001600160a01b03881690811790915591516001600160401b03421681529193507ff9d8226322c8a75a81f7a9399472a3567d65e6aa83c86cea6762141477922707910160405180910390a3505050565b610bd66115a2565b610a026000611678565b610be86115a2565b610a026116c8565b6001600160e81b031982166000908152600460205260408120805460609203610c5f576040805160008082526020820190925290610c56565b6040805160608101825260008082526020808301829052928201528252600019909201910181610c295790505b50915050610958565b6000610c7160ff851662015180611a47565b610c7b9042611b00565b82549091506000905b8015610cf2578284610c97600184611b00565b81548110610ca757610ca7611b13565b60009182526020909120600160029092020101546001600160401b031610610cdb5781610cd381611b29565b925050610ce0565b610cf2565b80610cea81611b42565b915050610c84565b50806001600160401b03811115610d0b57610d0b611aea565b604051908082528060200260200182016040528015610d5657816020015b6040805160608101825260008082526020808301829052928201528252600019909201910181610d295790505b50935060005b81811015610e1057835484908290610d75908590611b00565b610d7f9190611b59565b81548110610d8f57610d8f611b13565b60009182526020918290206040805160608101825260029390930290910180548352600101546001600160401b03811693830193909352600160401b9092046001600160a01b0316918101919091528551869083908110610df257610df2611b13565b60200260200101819052508080610e0890611b29565b915050610d5c565b5050505092915050565b60046020528160005260406000208181548110610e3657600080fd5b6000918252602090912060029091020180546001909101549092506001600160401b0381169150600160401b90046001600160a01b031683565b610e786115a2565b610e8182611651565b6001600160a01b03919091166000908152600560205260409020805460ff1916911515919091179055565b6040805160a081018252600080825260208201819052918101829052606081018290526080810191909152610edf61170b565b610ee883611651565b6001600160e81b0319821660009081526002602052604090206001810154600160e01b900460ff16610f2d57604051636a43f8d160e01b815260040160405180910390fd5b6040518060a00160405280600060f01b6001600160f01b0319168152602001846001600160e81b0319168152602001826000015481526020018260010160009054906101000a90046001600160401b03166001600160401b031681526020018260010160089054906101000a90046001600160a01b03166001600160a01b031681525091508160036000866001600160a01b03166001600160a01b031681526020019081526020016000206000856001600160e81b0319166001600160e81b031916815260200190815260200160002060008201518160000160006101000a81548161ffff021916908360f01c021790555060208201518160000160026101000a81548162ffffff021916908360e81c02179055506040820151816001015560608201518160020160006101000a8154816001600160401b0302191690836001600160401b0316021790555060808201518160020160086101000a8154816001600160a01b0302191690836001600160a01b031602179055509050508060010160089054906101000a90046001600160a01b03166001600160a01b0316836001600160e81b031916856001600160a01b03167f0c98a96c4f5852381583172031020b75b742df1fd64583ce99d47e2d1ed96b838460000154426040516111269291909182526001600160401b0316602082015260400190565b60405180910390a45061095860018055565b6111406115a2565b6001600160a01b0381166111a55760405162461bcd60e51b815260206004820152602660248201527f4f776e61626c653a206e6577206f776e657220697320746865207a65726f206160448201526564647265737360d01b606482015260840161091d565b6111ae81611678565b50565b8015806111c4575066038d7ea4c6800081115b156111ae57604051636a43f8d160e01b815260040160405180910390fd5b60006001600160e81b031983166204c42560ec1b0361121d5764174876e800821015801561121657506512309ce540008211155b9050610958565b6001600160e81b03198316621554d160ea1b036112515763055d4a80821015801561121657505063068e7780811115610958565b629896808210158015611269575064174876e8008211155b9392505050565b60606001600160e81b031982166204c42560ec1b036112ba5750506040805180820190915260158152740c4b0c0c0c0b4c8c0c0b0c0c0c081310940bd554d1605a1b602082015290565b6001600160e81b03198216621554d160ea1b036112fc57505060408051808201909152600f81526e0c0b8e4b4c4b8c481554d10bd554d1608a1b602082015290565b50506040805180820190915260168152750c0b8c4b4c4b0c0c0c0818dd5c9c995b98de4bd554d160521b602082015290565b6001600160e81b0319811660009081526004602052604081208054909103611354575050565b600061136362278d0042611b00565b90506000805b83548110156113c8578284828154811061138557611385611b13565b60009182526020909120600160029092020101546001600160401b031610156113b657816113b281611b29565b9250505b806113c081611b29565b915050611369565b50801561159c5760005b81811015611421578381815481106113ec576113ec611b13565b60009182526020822060029091020190815560010180546001600160e01b03191690558061141981611b29565b9150506113d2565b50805b83548110156114e15783818154811061143f5761143f611b13565b906000526020600020906002020184838361145a9190611b00565b8154811061146a5761146a611b13565b6000918252602090912082546002909202019081556001918201805492909101805467ffffffffffffffff1981166001600160401b03909416938417825591546001600160a01b03600160401b9182900416026001600160e01b0319909216909217179055806114d981611b29565b915050611424565b5082546000906114f2908390611b00565b90505b835481101561154b578380548061150e5761150e611b6c565b60008281526020812060026000199093019283020190815560010180546001600160e01b031916905590558061154381611b29565b9150506114f5565b50604080516001600160401b038085168252421660208201526001600160e81b03198616917ffeb5e799fa83703ee2d68b814f95b0ba1bdf58ee34327ccec3fe9ebe25e183fe910160405180910390a25b50505050565b6000546001600160a01b03163314610a025760405162461bcd60e51b815260206004820181905260248201527f4f776e61626c653a2063616c6c6572206973206e6f7420746865206f776e6572604482015260640161091d565b611604611764565b6000805460ff60a01b191690557f5db9ee0a495bf2e6ff9c91a7834c1ba4fdd244a5e8aa4e537bd38aeae4b073aa335b6040516001600160a01b03909116815260200160405180910390a1565b6001600160a01b0381166111ae5760405163e6c4247b60e01b815260040160405180910390fd5b600080546001600160a01b038381166001600160a01b0319831681178455604051919092169283917f8be0079c531659141344cd1fd0a4f28419497f9722a3daafe3b4186f6b6457e09190a35050565b6116d06117b4565b6000805460ff60a01b1916600160a01b1790557f62e78cea01bee320cd4e420270b5ea74000d11b0c9f74754ebdbfc544b05a2586116343390565b60026001540361175d5760405162461bcd60e51b815260206004820152601f60248201527f5265656e7472616e637947756172643a207265656e7472616e742063616c6c00604482015260640161091d565b6002600155565b600054600160a01b900460ff16610a025760405162461bcd60e51b815260206004820152601460248201527314185d5cd8589b194e881b9bdd081c185d5cd95960621b604482015260640161091d565b600054600160a01b900460ff1615610a025760405162461bcd60e51b815260206004820152601060248201526f14185d5cd8589b194e881c185d5cd95960821b604482015260640161091d565b80356001600160e81b03198116811461181957600080fd5b919050565b60006020828403121561183057600080fd5b61126982611801565b6000806040838503121561184c57600080fd5b61185583611801565b946020939093013593505050565b80356001600160a01b038116811461181957600080fd5b6000806040838503121561188d57600080fd5b61189683611801565b91506118a460208401611863565b90509250929050565b6000602082840312156118bf57600080fd5b61126982611863565b600080604083850312156118db57600080fd5b6118e483611801565b9150602083013560ff811681146118fa57600080fd5b809150509250929050565b602080825282518282018190526000919060409081850190868401855b8281101561196357815180518552868101516001600160401b0316878601528501516001600160a01b03168585015260609093019290850190600101611922565b5091979650505050505050565b6000806040838503121561198357600080fd5b61198c83611863565b91506118a460208401611801565b600080604083850312156119ad57600080fd5b6119b683611863565b9150602083013580151581146118fa57600080fd5b83815260006020606081840152845180606085015260005b818110156119ff578681018301518582016080015282016119e3565b506000608082860101526080601f19601f830116850101925050506001600160401b0383166040830152949350505050565b634e487b7160e01b600052601160045260246000fd5b808202811582820484141761095857610958611a31565b600082611a7b57634e487b7160e01b600052601260045260246000fd5b500490565b805169ffffffffffffffffffff8116811461181957600080fd5b600080600080600060a08688031215611ab257600080fd5b611abb86611a80565b9450602086015193506040860151925060608601519150611ade60808701611a80565b90509295509295909350565b634e487b7160e01b600052604160045260246000fd5b8181038181111561095857610958611a31565b634e487b7160e01b600052603260045260246000fd5b600060018201611b3b57611b3b611a31565b5060010190565b600081611b5157611b51611a31565b506000190190565b8082018082111561095857610958611a31565b634e487b7160e01b600052603160045260246000fdfe45786368616e67652072617465206f75747369646520657870656374656420626f756e6473a26469706673582212209807dd01b27f9a4489b5da6f5191abb948cd26ff01bfc4ae7eec793d899645ef64736f6c6343000814003360c0604052600580546001600160801b0319166a278d00000000000003f4801790553480156200002e57600080fd5b50604051620020e3380380620020e38339810160408190526200005191620000f2565b6200005c3362000085565b6000805460ff60a01b19169055600180556001600160a01b039182166080521660a0526200012a565b600080546001600160a01b038381166001600160a01b0319831681178455604051919092169283917f8be0079c531659141344cd1fd0a4f28419497f9722a3daafe3b4186f6b6457e09190a35050565b80516001600160a01b0381168114620000ed57600080fd5b919050565b600080604083850312156200010657600080fd5b6200011183620000d5565b91506200012160208401620000d5565b90509250929050565b60805160a051611f5b62000188600039600081816101a4015281816107e601528181610f500152818161145b0152818161156e0152818161161a01526116ac0152600081816103980152818161049c01526114ae0152611f5b6000f3fe608060405234801561001057600080fd5b50600436106101425760003560e01c80637b343316116100b8578063a126cf231161007c578063a126cf231461035b578063e10bc3c214610393578063e3ebadd5146103ba578063ec76b563146103da578063f2fde38b146103fa578063fc912f941461040d57600080fd5b80637b343316146102f95780638426e6c11461030c5780638456cb591461032f5780638da5cb5b1461033757806395ccea671461034857600080fd5b80634f5447c71161010a5780634f5447c7146101e657806353a758ca146101f9578063595359161461021d5780635c975abb146102375780636441cb4d14610255578063715018a6146102f157600080fd5b806301cc5d5b14610147578063158a1ca1146101775780632a43ede21461018c5780633e413bee1461019f5780633f4ba83a146101de575b600080fd5b60055461015a906001600160401b031681565b6040516001600160401b0390911681526020015b60405180910390f35b61018a610185366004611acc565b610420565b005b61018a61019a366004611b1b565b61045c565b6101c67f000000000000000000000000000000000000000000000000000000000000000081565b6040516001600160a01b03909116815260200161016e565b61018a6108ce565b61018a6101f4366004611b4e565b6108e0565b61020c610207366004611b91565b610b58565b60405161016e959493929190611c03565b60055461015a90600160401b90046001600160401b031681565b600054600160a01b900460ff165b604051901515815260200161016e565b6102db610263366004611b91565b600260208190526000918252604090912080546001820154928201546003830154600484015460059094015460809390931b946001600160a01b0390811694929360ff808416946001600160401b03610100808704821696600160481b8104831696600160881b90910490921694929383169204168a565b60405161016e9a99989796959493929190611c84565b61018a610d18565b61018a610307366004611b91565b610d2a565b61024561031a366004611d01565b60046020526000908152604090205460ff1681565b61018a610f2b565b6000546001600160a01b03166101c6565b61018a610356366004611d1c565b610f3b565b610385610369366004611b91565b6001600160801b03191660009081526003602052604090205490565b60405190815260200161016e565b6101c67f000000000000000000000000000000000000000000000000000000000000000081565b6103cd6103c8366004611b91565b610f7b565b60405161016e9190611d46565b6103856103e8366004611b91565b60036020526000908152604090205481565b61018a610408366004611d01565b6110ad565b61018a61041b366004611dd1565b611123565b610428611214565b6104318261126e565b6001600160a01b03919091166000908152600460205260409020805460ff1916911515919091179055565b610464611295565b61046c6112ee565b6040516303094c9360e11b81526001600160801b0319841660048201526000908190819081906001600160a01b037f00000000000000000000000000000000000000000000000000000000000000001690630612992690602401608060405180830381865afa1580156104e3573d6000803e3d6000fd5b505050506040513d601f19601f820116820180604052508101906105079190611dff565b92965090945092509050600084600481111561052557610525611c4c565b03610542576040516282b42960e81b815260040160405180910390fd5b60055461055f90600160401b90046001600160401b031683611e6e565b6001600160401b0316426001600160401b031611156105915760405163559895a360e01b815260040160405180910390fd5b6001600160801b0319871660009081526002602052604090206003015461010090046001600160401b0316156105da57604051632bf773b360e11b815260040160405180910390fd5b8515806105e657508286115b156106045760405163162908e360e11b815260040160405180910390fd5b60408051610140810182526001600160801b03198916815233602082015290810187905260608101600081526001600160401b03428181166020840152600554604090930192610655921690611e6e565b6001600160401b031681526000602080830182905260408084018a9052606080850184905260809485018490526001600160801b03198d81168552600280855294839020875181549092169190961c17855591850151600180860180546001600160a01b0319166001600160a01b03909316929092179091559085015184840155908401516003840180549193909260ff19909216919084908111156106fd576106fd611c4c565b0217905550608082015160038201805460a085015160c08601516001600160401b03908116600160881b0267ffffffffffffffff60881b19928216600160481b0270ffffffffffffffff00000000000000000019929096166101009081029290921670ffffffffffffffffffffffffffffffff001990941693909317949094171617905560e083015160048301558083015160059092018054610120909401516001600160a01b0316909102610100600160a81b0319921515929092166001600160a81b031990931692909217179055633b9aca008611156108435761080e6001600160a01b037f00000000000000000000000000000000000000000000000000000000000000001633308961133b565b6001600160801b03198716600090815260036020908152604080832089905560029091529020600501805460ff191660011790555b60055433906001600160801b03198916907f529d316e877861e9fd042dcc954b34c4a7cb1bfe1d080231470837a330d5407a908990429061088d906001600160401b031682611e6e565b604080519384526001600160401b0392831660208501529116908201526060810189905260800160405180910390a3505050506108c960018055565b505050565b6108d6611214565b6108de6113ac565b565b3360009081526004602052604090205460ff1615801561091a57503361090e6000546001600160a01b031690565b6001600160a01b031614155b15610937576040516282b42960e81b815260040160405180910390fd5b6001600160801b0319831660009081526002602052604081206003015484916101009091046001600160401b031690036109845760405163084a15e160e31b815260040160405180910390fd5b6001600160801b03198416600090815260026020526040812090600382015460ff1660028111156109b7576109b7611c4c565b146109d557604051632bf773b360e11b815260040160405180910390fd5b60018460028111156109e9576109e9611c4c565b1480610a0657506002846002811115610a0457610a04611c4c565b145b610a4c5760405162461bcd60e51b815260206004820152601260248201527124b73b30b634b2103932b9b7b63aba34b7b760711b60448201526064015b60405180910390fd5b6001846002811115610a6057610a60611c4c565b148015610a705750806002015483115b15610a8e5760405163162908e360e11b815260040160405180910390fd5b60038101805485919060ff19166001836002811115610aaf57610aaf611c4c565b021790555060038101805467ffffffffffffffff60881b1916600160881b426001600160401b0316021790556001846002811115610aef57610aef611c4c565b148015610afc5750600083115b15610b0b57610b0b8584611401565b846001600160801b0319167f9a41acae3542dd6bb30c375fd567c7cfad8fb2d7c237812cd2740d05dba027eb858542604051610b4993929190611e95565b60405180910390a25050505050565b6001600160801b0319811660009081526002602052604081206003015460609190819081908190869061010090046001600160401b03168203610bae5760405163084a15e160e31b815260040160405180910390fd5b6001600160801b03198716600090815260026020526040812090600382015460ff166002811115610be157610be1611c4c565b03610c685760038101546001600160401b03600160481b9091048116429091161115610c44576040518060400160405280601781526020017f50454e44494e475f4155544f5f5245534f4c5554494f4e0000000000000000008152509650610cd5565b6040518060400160405280600481526020016327a822a760e11b8152509650610cd5565b6001600382015460ff166002811115610c8357610c83611c4c565b03610cb05760405180604001604052806008815260200167149151955391115160c21b8152509650610cd5565b6040518060400160405280600981526020016810d3d391925493515160ba1b81525096505b6001810154600282015460039092015497996001600160a01b03909116985090966001600160401b03610100820481169750600160481b90910416945092505050565b610d20611214565b6108de600061172a565b610d32611295565b6001600160801b0319811660009081526002602052604081206003015482916101009091046001600160401b03169003610d7f5760405163084a15e160e31b815260040160405180910390fd5b6001600160801b03198216600090815260026020526040902060038101546001600160401b03600160481b9091048116429091161015610df85760405162461bcd60e51b8152602060048201526014602482015273111958591b1a5b99481b9bdd081c995858da195960621b6044820152606401610a43565b6000600382015460ff166002811115610e1357610e13611c4c565b14610e3157604051632bf773b360e11b815260040160405180910390fd5b6003810180546001600160401b034216600160881b0278ffffffffffffffff00000000000000000000000000000000ff199091161760011790556002810154610e7b908490611401565b6001810154604080518082018252600d81526c10555513d7d49154d3d3159151609a1b60209182015281517f49ed6af13b12a5219bbeac7a8d7549c12df55310bdf49635f6cf6f2c1e35616b81526001600160401b034216918101919091526001600160a01b03909216916001600160801b03198616917f12e79ffc9da1c235f5815fb48e9d7b964aedd456ea9993d75cc6e32f8924bd28910160405180910390a35050610f2860018055565b50565b610f33611214565b6108de61177a565b610f43611214565b610f776001600160a01b037f00000000000000000000000000000000000000000000000000000000000000001683836117bd565b5050565b6040805160e081018252600080825260208201819052918101829052606081018290526080810182905260a0810182905260c08101919091526001600160801b0319821660009081526002602052604081206003015483916101009091046001600160401b031690036110015760405163084a15e160e31b815260040160405180910390fd5b6001600160801b0319808416600090815260026020818152604092839020835160e0810185528154608090811b909616815260018201546001600160a01b031692810192909252808301549382019390935260038301546001600160401b03610100820481166060840152600160481b82041694820194909452919260a083019160ff9091169081111561109757611097611c4c565b8152602001826004015481525092505050919050565b6110b5611214565b6001600160a01b03811661111a5760405162461bcd60e51b815260206004820152602660248201527f4f776e61626c653a206e6577206f776e657220697320746865207a65726f206160448201526564647265737360d01b6064820152608401610a43565b610f288161172a565b61112b611214565b62093a80826001600160401b031611156111875760405162461bcd60e51b815260206004820152601d60248201527f4175746f2d7265736f6c76652074696d656f757420746f6f206c6f6e670000006044820152606401610a43565b6276a700816001600160401b031611156111e35760405162461bcd60e51b815260206004820152601960248201527f4f70656e696e6720646561646c696e6520746f6f206c6f6e67000000000000006044820152606401610a43565b600580546001600160401b03928316600160401b026001600160801b03199091169290931691909117919091179055565b6000546001600160a01b031633146108de5760405162461bcd60e51b815260206004820181905260248201527f4f776e61626c653a2063616c6c6572206973206e6f7420746865206f776e65726044820152606401610a43565b6001600160a01b038116610f285760405163e6c4247b60e01b815260040160405180910390fd5b6002600154036112e75760405162461bcd60e51b815260206004820152601f60248201527f5265656e7472616e637947756172643a207265656e7472616e742063616c6c006044820152606401610a43565b6002600155565b600054600160a01b900460ff16156108de5760405162461bcd60e51b815260206004820152601060248201526f14185d5cd8589b194e881c185d5cd95960821b6044820152606401610a43565b6040516001600160a01b03808516602483015283166044820152606481018290526113a69085906323b872dd60e01b906084015b60408051601f198184030181529190526020810180516001600160e01b03166001600160e01b0319909316929092179091526117ed565b50505050565b6113b46118c2565b6000805460ff60a01b191690557f5db9ee0a495bf2e6ff9c91a7834c1ba4fdd244a5e8aa4e537bd38aeae4b073aa335b6040516001600160a01b03909116815260200160405180910390a1565b6001600160801b031982166000908152600260205260409020600581015460ff1615611699576001600160801b03198316600090815260036020526040902054808311611607576001820154611484906001600160a01b037f000000000000000000000000000000000000000000000000000000000000000081169116856117bd565b82811115611598576040516303094c9360e11b81526001600160801b0319851660048201526000907f00000000000000000000000000000000000000000000000000000000000000006001600160a01b031690630612992690602401608060405180830381865afa1580156114fd573d6000803e3d6000fd5b505050506040513d601f19601f820116820180604052508101906115219190611dff565b50925050506000611554866001600160801b0319166000908152600260205260409020600101546001600160a01b031690565b9050611595816115648786611ec0565b6001600160a01b037f00000000000000000000000000000000000000000000000000000000000000001691906117bd565b50505b60018201546040518481526001600160a01b03909116906001600160801b03198616907fb3dc6c18d8ec9640a8a5e24872e9789e63b846f5b7e8b19409fe5a1507a4862d9060200160405180910390a36001600160801b031984166000908152600360205260408120556113a6565b6001820154611643906001600160a01b037f000000000000000000000000000000000000000000000000000000000000000081169116856117bd565b60018201546040518481526001600160a01b03909116906001600160801b03198616907fb3dc6c18d8ec9640a8a5e24872e9789e63b846f5b7e8b19409fe5a1507a4862d9060200160405180910390a350505050565b60018101546116d5906001600160a01b037f000000000000000000000000000000000000000000000000000000000000000081169116846117bd565b60018101546040518381526001600160a01b03909116906001600160801b03198516907fb3dc6c18d8ec9640a8a5e24872e9789e63b846f5b7e8b19409fe5a1507a4862d9060200160405180910390a3505050565b600080546001600160a01b038381166001600160a01b0319831681178455604051919092169283917f8be0079c531659141344cd1fd0a4f28419497f9722a3daafe3b4186f6b6457e09190a35050565b6117826112ee565b6000805460ff60a01b1916600160a01b1790557f62e78cea01bee320cd4e420270b5ea74000d11b0c9f74754ebdbfc544b05a2586113e43390565b6040516001600160a01b0383166024820152604481018290526108c990849063a9059cbb60e01b9060640161136f565b6000611842826040518060400160405280602081526020017f5361666545524332303a206c6f772d6c6576656c2063616c6c206661696c6564815250856001600160a01b03166119129092919063ffffffff16565b90508051600014806118635750808060200190518101906118639190611ed9565b6108c95760405162461bcd60e51b815260206004820152602a60248201527f5361666545524332303a204552433230206f7065726174696f6e20646964206e6044820152691bdd081cdd58d8d9595960b21b6064820152608401610a43565b600054600160a01b900460ff166108de5760405162461bcd60e51b815260206004820152601460248201527314185d5cd8589b194e881b9bdd081c185d5cd95960621b6044820152606401610a43565b60606119218484600085611929565b949350505050565b60608247101561198a5760405162461bcd60e51b815260206004820152602660248201527f416464726573733a20696e73756666696369656e742062616c616e636520666f6044820152651c8818d85b1b60d21b6064820152608401610a43565b600080866001600160a01b031685876040516119a69190611ef6565b60006040518083038185875af1925050503d80600081146119e3576040519150601f19603f3d011682016040523d82523d6000602084013e6119e8565b606091505b50915091506119f987838387611a04565b979650505050505050565b60608315611a73578251600003611a6c576001600160a01b0385163b611a6c5760405162461bcd60e51b815260206004820152601d60248201527f416464726573733a2063616c6c20746f206e6f6e2d636f6e74726163740000006044820152606401610a43565b5081611921565b6119218383815115611a885781518083602001fd5b8060405162461bcd60e51b8152600401610a439190611f12565b80356001600160a01b0381168114611ab957600080fd5b919050565b8015158114610f2857600080fd5b60008060408385031215611adf57600080fd5b611ae883611aa2565b91506020830135611af881611abe565b809150509250929050565b80356001600160801b031981168114611ab957600080fd5b600080600060608486031215611b3057600080fd5b611b3984611b03565b95602085013595506040909401359392505050565b600080600060608486031215611b6357600080fd5b611b6c84611b03565b9250602084013560038110611b8057600080fd5b929592945050506040919091013590565b600060208284031215611ba357600080fd5b611bac82611b03565b9392505050565b60005b83811015611bce578181015183820152602001611bb6565b50506000910152565b60008151808452611bef816020860160208601611bb3565b601f01601f19169290920160200192915050565b60a081526000611c1660a0830188611bd7565b6001600160a01b039690961660208301525060408101939093526001600160401b03918216606084015216608090910152919050565b634e487b7160e01b600052602160045260246000fd5b60038110611c8057634e487b7160e01b600052602160045260246000fd5b9052565b6001600160801b03198b1681526001600160a01b038a81166020830152604082018a9052610140820190611cbb606084018b611c62565b6001600160401b03988916608084015296881660a08301529490961660c087015260e0860192909252151561010085015290911661012090920191909152949350505050565b600060208284031215611d1357600080fd5b611bac82611aa2565b60008060408385031215611d2f57600080fd5b611d3883611aa2565b946020939093013593505050565b600060e0820190506001600160801b0319835116825260018060a01b0360208401511660208301526040830151604083015260608301516001600160401b038082166060850152806080860151166080850152505060a0830151611dad60a0840182611c62565b5060c092830151919092015290565b6001600160401b0381168114610f2857600080fd5b60008060408385031215611de457600080fd5b8235611def81611dbc565b91506020830135611af881611dbc565b60008060008060808587031215611e1557600080fd5b845160058110611e2457600080fd5b602086015160408701519195509350611e3c81611dbc565b6060860151909250611e4d81611dbc565b939692955090935050565b634e487b7160e01b600052601160045260246000fd5b6001600160401b03818116838216019080821115611e8e57611e8e611e58565b5092915050565b60608101611ea38286611c62565b8360208301526001600160401b0383166040830152949350505050565b81810381811115611ed357611ed3611e58565b92915050565b600060208284031215611eeb57600080fd5b8151611bac81611abe565b60008251611f08818460208701611bb3565b9190910192915050565b602081526000611bac6020830184611bd756fea26469706673582212204a518ce3ec09c0c7ea5c4046fd8b778479c9ea8df44aa5c87e74711b34fbecd764736f6c63430008140033608060405234801561001057600080fd5b5061001a33610030565b6000805460ff60a01b1916905560018055610080565b600080546001600160a01b038381166001600160a01b0319831681178455604051919092169283917f8be0079c531659141344cd1fd0a4f28419497f9722a3daafe3b4186f6b6457e09190a35050565b611a9a8061008f6000396000f3fe608060405234801561001057600080fd5b50600436106101a95760003560e01c80638456cb59116100f9578063e3de589711610097578063f04ab07011610071578063f04ab07014610652578063f2fde38b146106c4578063f309d250146106d7578063f6ff95a6146106fa57600080fd5b8063e3de589714610610578063ea15320614610633578063eed929f31461064657600080fd5b806390e51383116100d357806390e51383146104e2578063b4b343c81461059c578063d12b27c5146105a8578063d211d8e5146105bb57600080fd5b80638456cb59146104ac57806384a1f0cc146104b45780638da5cb5b146104c757600080fd5b806353fc4a2c11610166578063696eb34411610140578063696eb344146104125780636e1795351461046e578063715018a6146104815780638426e6c11461048957600080fd5b806353fc4a2c146102ac5780635c975abb146102bf578063639c0dd0146102dd57600080fd5b8063103060a8146101ae578063158a1ca1146101fd5780632eea370b146102125780633f4ba83a14610234578063436efd5c1461023c57806348c5cb0114610296575b600080fd5b6101dd6101bc366004611800565b60056020526000908152604090208054600182015460029092015490919083565b604080519384526020840192909252908201526060015b60405180910390f35b61021061020b36600461181b565b610716565b005b610225610220366004611857565b610752565b6040516101f4939291906118ac565b610210610b48565b61024f61024a366004611800565b610b5a565b604080518351815260208085015181830152938201518183015282516060808301919091529383015160808201529082015160a082015291015160c082015260e0016101f4565b61029e603281565b6040519081526020016101f4565b6102106102ba36600461190e565b610c1f565b600054600160a01b900460ff165b60405190151581526020016101f4565b6103a96102eb36600461190e565b6040805160e081018252600080825260208201819052918101829052606081018290526080810182905260a0810182905260c081019190915250600090815260026020818152604092839020835160e081018552815481526001820154928101929092529182015460ff908116938201939093526003820154606082015260049091015467ffffffffffffffff81166080830152600160401b8104909216151560a0820152600160481b9091046001600160a01b031660c082015290565b6040516101f49190815181526020808301519082015260408083015160ff16908201526060808301519082015260808083015167ffffffffffffffff169082015260a08083015115159082015260c0918201516001600160a01b03169181019190915260e00190565b610425610420366004611800565b610d64565b604080518351815260208085015190820152838201519181019190915260608084015161ffff1690820152608092830151151592810192909252151560a082015260c0016101f4565b61021061047c366004611927565b610e02565b610210610fa0565b6102cd610497366004611800565b60076020526000908152604090205460ff1681565b610210610fb2565b6102106104c2366004611982565b610fc2565b6000546040516001600160a01b0390911681526020016101f4565b61054c6104f036600461190e565b60026020819052600091825260409091208054600182015492820154600383015460049093015491939260ff91821692909167ffffffffffffffff821691600160401b810490911690600160481b90046001600160a01b031687565b60408051978852602088019690965260ff90941694860194909452606085019190915267ffffffffffffffff16608084015290151560a08301526001600160a01b031660c082015260e0016101f4565b61029e6402540be40081565b6102cd6105b6366004611857565b6111b7565b6105f06105c9366004611800565b60066020526000908152604090208054600182015460028301546003909301549192909184565b6040805194855260208501939093529183015260608201526080016101f4565b6102cd61061e36600461190e565b60009081526003602052604090205460ff1690565b6102106106413660046119c7565b611359565b61029e64174876e80081565b610696610660366004611800565b60046020526000908152604090208054600182015460028301546003909301549192909161ffff81169062010000900460ff1685565b6040805195865260208601949094529284019190915261ffff1660608301521515608082015260a0016101f4565b6102106106d2366004611800565b611424565b6102cd6106e536600461190e565b60036020526000908152604090205460ff1681565b6107036101f481565b60405161ffff90911681526020016101f4565b61071e61149d565b610727826114f7565b6001600160a01b03919091166000908152600760205260409020805460ff1916911515919091179055565b600080606061075f61151e565b6001600160a01b0386166000908152600460205260408120600381015490919062010000900460ff16610797576402540be40061079a565b81545b9050808611156108975760408051808201909152600b81526a2620a923a2afa7a92222a960a91b60209091015261085a6001600160a01b0389167f3e585df7b5de52e22f135340fe991a24310cc84d675fdf1e87844f6bfa6eecc86107ff898561156b565b60408051808201909152601e81527f4f7264657220616d6f756e742065786365656473207468726573686f6c6400006020909101527f23031384cd481ae10d4b9c4057c644ada6a6b4e2363194f28c0ab510f8310c01610fc2565b6001610866878361156b565b6040518060400160405280600b81526020016a212627a1a5afa7a92222a960a91b8152509450945094505050610b3f565b6108a188876115c8565b6001600160a01b0388166000908152600560205260408120600384015490919062010000900460ff166108d55760326108db565b83600101545b905080826000015411156109d1576040805180820182526014815273484947485f4f524445525f4652455155454e435960601b60209182015281518083019092528082527f4f72646572732070657220686f757220657863656564207468726573686f6c649101526109996001600160a01b038b167f039df9e1ec405ac64f27799ee5f3c02b1fed1a2e673f27a891f1477080ef8ca560077f55928d4fd87094f84fb0f5f1ac9e68d6f20fc47ecdeb40eb1fc3b59f4bd953d1610fc2565b600160076040518060400160405280600c81526020016b2922ab24a2abafa7a92222a960a11b81525096509650965050505050610b3f565b6109db8a8961164f565b6001600160a01b038a166000908152600660205260408120600386015490919062010000900460ff16610a135764174876e800610a19565b85600201545b90508082600101541115610b0f576040805180820182526011815270484947485f4441494c595f564f4c554d4560781b6020918201528151808301909252601e82527f4461696c7920766f6c756d652065786365656473207468726573686f6c640000910152610ad56001600160a01b038d167fd796f986f832e915276c10d5e9505fddb2c1a48f154e1316740533055f0ee2b660067f70d0f45c797404450220ce2b5e65ad4c209d2ac61fcd56c8defa90cb50fcd754610fc2565b600160066040518060400160405280600c81526020016b2922ab24a2abafa7a92222a960a11b815250985098509850505050505050610b3f565b60008060405180604001604052806007815260200166415050524f564560c81b8152509850985098505050505050505b93509350939050565b610b5061149d565b610b586116ac565b565b610b7e60405180606001604052806000815260200160008152602001600081525090565b610ba96040518060800160405280600081526020016000815260200160008152602001600081525090565b50506001600160a01b0316600090815260056020908152604080832060068352928190208151606080820184528554825260018087015483870152600296870154838601528451608081018652845481529084015495810195909552948201549284019290925260030154928201929092529091565b3360009081526007602052604090205460ff16158015610c59575033610c4d6000546001600160a01b031690565b6001600160a01b031614155b15610c76576040516282b42960e81b815260040160405180910390fd5b60008181526002602052604090206004810154600160401b900460ff1615610cd85760405162461bcd60e51b815260206004820152601060248201526f105b1c9958591e481c995cdbdb1d995960821b60448201526064015b60405180910390fd5b600481018054600160481b3390810268010000000000000000600160e81b031990921691909117600160401b179091558154600090815260036020908152604091829020805460ff1916905590514267ffffffffffffffff16815284917f5ab5f10e523b693a422cfbfa26c3a35a58f0b6f4c6d0d43aa896ab439e41737e910160405180910390a35050565b610d9c6040518060a00160405280600081526020016000815260200160008152602001600061ffff1681526020016000151581525090565b506001600160a01b03166000908152600460209081526040918290206003810154835160a081018552825481526001830154938101939093526002909101549282019290925261ffff821660608201526201000090910460ff1680151560808301529091565b3360009081526007602052604090205460ff16158015610e3c575033610e306000546001600160a01b031690565b6001600160a01b031614155b15610e59576040516282b42960e81b815260040160405180910390fd5b610e62856114f7565b6127108161ffff161115610eae5760405162461bcd60e51b8152602060048201526013602482015272496e76616c696420726566756e64207261746560681b6044820152606401610ccf565b6040805160a081018252858152602080820186815282840186815261ffff808716606086019081526001608087018181526001600160a01b038e166000818152600490985296899020975188559451908701559151600286015590516003909401805492511515620100000262ffffff1990931694909116939093171790915590517f8656196b428e9d5ff60b217e411528f0df8b6d51a5fdf579cf2b09080bd37dcf90610f9190879087908790879042909485526020850193909352604084019190915261ffff16606083015267ffffffffffffffff16608082015260a00190565b60405180910390a25050505050565b610fa861149d565b610b586000611701565b610fba61149d565b610b58611751565b610fca61151e565b60018260ff1610158015610fe25750600a8260ff1611155b6110215760405162461bcd60e51b815260206004820152601060248201526f496e76616c696420736576657269747960801b6044820152606401610ccf565b604080516020810186905290810184905242606082015260009060800160408051601f19818403018152828252805160209182012060e08401835288845283820188815260ff808916868601818152606088018a815267ffffffffffffffff42811660808b01908152600060a08c0181815260c08d018281528a835260029b8c90529b9091209b518c55965160018c01559251978a0180549890951660ff199098169790971790935591516003880155905160049096018054925195516001600160a01b0316600160481b027fffffff0000000000000000000000000000000000000000ffffffffffffffffff961515600160401b0268ffffffffffffffffff199094169790951696909617919091179390931691909117909255909150600811611160576000858152600360205260409020805460ff191660011790555b6040805160ff85168152602081018490524267ffffffffffffffff16818301529051859187917fbf8234647b7172a228e0f0df08220c61199de02bc6b1ea20eb65bfe846980e899181900360600190a35050505050565b60006111c161151e565b6001600160a01b03841660009081526006602052604081206002018054916111e8836119ff565b90915550506001600160a01b038416600090815260066020526040812054611211906001611a18565b6001600160a01b03861660009081526006602052604090206002015461123990612710611a2b565b6112439190611a42565b6001600160a01b038616600090815260046020526040812060038101549293509162010000900460ff16611279576101f4611283565b600382015461ffff165b90508061ffff1683111561134a57604080518082018252601081526f484947485f524546554e445f5241544560801b6020918201528151808301909252601d82527f526566756e6420726174652065786365656473207468726573686f6c6400000091015261133e6001600160a01b0388167f9a9b05842cc868e8983d81737a6f6d178b3e18db5d404c73e6c27899eaafe4fa60087f55d4c1e042c195bd888b1d5ec77138c42ac0b89588771faf32a74d20a613730f610fc2565b60019350505050611352565b600093505050505b9392505050565b3360009081526007602052604090205460ff161580156113935750336113876000546001600160a01b031690565b6001600160a01b031614155b156113b0576040516282b42960e81b815260040160405180910390fd5b6113b861151e565b60008281526003602052604090819020805460ff191660011790555182907f90e7a508adfd5f658f1845951a8b6ebf7a224bf9211a58727f2265930e79f1a290611418908490429091825267ffffffffffffffff16602082015260400190565b60405180910390a25050565b61142c61149d565b6001600160a01b0381166114915760405162461bcd60e51b815260206004820152602660248201527f4f776e61626c653a206e6577206f776e657220697320746865207a65726f206160448201526564647265737360d01b6064820152608401610ccf565b61149a81611701565b50565b6000546001600160a01b03163314610b585760405162461bcd60e51b815260206004820181905260248201527f4f776e61626c653a2063616c6c6572206973206e6f7420746865206f776e65726044820152606401610ccf565b6001600160a01b03811661149a5760405163e6c4247b60e01b815260040160405180910390fd5b600054600160a01b900460ff1615610b585760405162461bcd60e51b815260206004820152601060248201526f14185d5cd8589b194e881c185d5cd95960821b6044820152606401610ccf565b6000808261157a856064611a2b565b6115849190611a42565b9050606e81116115985760039150506115c2565b609681116115aa5760059150506115c2565b60c881116115bc5760079150506115c2565b60099150505b92915050565b6001600160a01b0382166000908152600560205260408120906115ed610e1042611a42565b6115f990610e10611a2b565b90508082600201541461161c576001808355820183905560028201819055611649565b815482600061162a836119ff565b9190505550828260010160008282546116439190611a18565b90915550505b50505050565b6001600160a01b0382166000908152600660205260408120906116756201518042611a42565b6116829062015180611a2b565b90508082600301541461161c57600180835582018390556000600283015560038201819055611649565b6116b4611794565b6000805460ff60a01b191690557f5db9ee0a495bf2e6ff9c91a7834c1ba4fdd244a5e8aa4e537bd38aeae4b073aa335b6040516001600160a01b03909116815260200160405180910390a1565b600080546001600160a01b038381166001600160a01b0319831681178455604051919092169283917f8be0079c531659141344cd1fd0a4f28419497f9722a3daafe3b4186f6b6457e09190a35050565b61175961151e565b6000805460ff60a01b1916600160a01b1790557f62e78cea01bee320cd4e420270b5ea74000d11b0c9f74754ebdbfc544b05a2586116e43390565b600054600160a01b900460ff16610b585760405162461bcd60e51b815260206004820152601460248201527314185d5cd8589b194e881b9bdd081c185d5cd95960621b6044820152606401610ccf565b80356001600160a01b03811681146117fb57600080fd5b919050565b60006020828403121561181257600080fd5b611352826117e4565b6000806040838503121561182e57600080fd5b611837836117e4565b91506020830135801515811461184c57600080fd5b809150509250929050565b60008060006060848603121561186c57600080fd5b611875846117e4565b925060208401356fffffffffffffffffffffffffffffffff198116811461189b57600080fd5b929592945050506040919091013590565b83151581526000602060ff85168184015260606040840152835180606085015260005b818110156118eb578581018301518582016080015282016118cf565b506000608082860101526080601f19601f83011685010192505050949350505050565b60006020828403121561192057600080fd5b5035919050565b600080600080600060a0868803121561193f57600080fd5b611948866117e4565b9450602086013593506040860135925060608601359150608086013561ffff8116811461197457600080fd5b809150509295509295909350565b6000806000806080858703121561199857600080fd5b8435935060208501359250604085013560ff811681146119b757600080fd5b9396929550929360600135925050565b600080604083850312156119da57600080fd5b50508035926020909101359150565b634e487b7160e01b600052601160045260246000fd5b600060018201611a1157611a116119e9565b5060010190565b808201808211156115c2576115c26119e9565b80820281158282048414176115c2576115c26119e9565b600082611a5f57634e487b7160e01b600052601260045260246000fd5b50049056fea264697066735822122062c57fb9ab7f98e100638fd7a9f7f6f6e37df59d84318defe83d13b950767afb64736f6c6343000814003360c06040526007805461ffff191660c81790553480156200001f57600080fd5b5060405162001cf838038062001cf8833981016040819052620000429162000103565b6200004d3362000096565b6000805460ff60a01b19169055600180556001600160a01b0392831660805290821660a0526007805491909216620100000262010000600160b01b03199091161790556200014d565b600080546001600160a01b038381166001600160a01b0319831681178455604051919092169283917f8be0079c531659141344cd1fd0a4f28419497f9722a3daafe3b4186f6b6457e09190a35050565b80516001600160a01b0381168114620000fe57600080fd5b919050565b6000806000606084860312156200011957600080fd5b6200012484620000e6565b92506200013460208501620000e6565b91506200014460408501620000e6565b90509250925092565b60805160a051611b5b6200019d60003960006105b10152600081816102eb015281816107e8015281816109c601528181610abf01528181610dd1015281816111a501526112070152611b5b6000f3fe608060405234801561001057600080fd5b50600436106101cf5760003560e01c80638456cb5911610104578063aa290e6d116100a2578063e74b981b11610071578063e74b981b146105d3578063eb22ae11146105e6578063f2fde38b14610606578063f3fef3a31461061957600080fd5b8063aa290e6d1461054d578063b1b16c9b14610560578063b9d4e8791461058b578063e10bc3c2146105ac57600080fd5b80638da5cb5b116100de5780638da5cb5b1461043957806395ccea671461044a578063977800201461045d57806398c3f80f146104ef57600080fd5b80638456cb59146103c8578063892f928e146103d05780638c6300971461042657600080fd5b806346904840116101715780636a75f6431161014b5780636a75f643146103775780636f173e921461038a578063715018a61461039d5780638426e6c1146103a557600080fd5b8063469048401461032d57806347e7ef24146103465780635c975abb1461035957600080fd5b8063247f9739116101ad578063247f97391461024e57806330e407ea1461026e5780633e413bee146102e65780633f4ba83a1461032557600080fd5b80630f6cc3c6146101d4578063158a1ca11461021857806315f7e05e1461022d575b600080fd5b6101e76101e2366004611834565b61062c565b604080519384526001600160a01b0390921660208401526001600160401b0316908201526060015b60405180910390f35b61022b61022636600461186c565b610682565b005b61024061023b3660046118a3565b6106be565b60405190815260200161020f565b61026161025c3660046118a3565b6108e2565b60405161020f91906118c5565b6102b561027c3660046118a3565b6003602081905260009182526040909120805460018201546002830154938301546004909301549193909290916001600160401b031685565b6040805195865260208601949094529284019190915260608301526001600160401b0316608082015260a00161020f565b61030d7f000000000000000000000000000000000000000000000000000000000000000081565b6040516001600160a01b03909116815260200161020f565b61022b610985565b60075461030d906201000090046001600160a01b031681565b61022b610354366004611834565b610997565b600054600160a01b900460ff165b604051901515815260200161020f565b61022b610385366004611834565b610b54565b61022b6103983660046118a3565b610c57565b61022b610d01565b6103676103b33660046118a3565b60066020526000908152604090205460ff1681565b61022b610d13565b6104116103de366004611930565b6001600160a01b039182166000908152600260209081526040808320939094168252919091522080546001909101549091565b6040805192835260208301919091520161020f565b610240610434366004611930565b610d23565b6000546001600160a01b031661030d565b61022b610458366004611834565b610dbc565b6104b661046b366004611930565b600260208181526000938452604080852090915291835291208054600182015492820154600383015460049093015491939290916001600160401b0380821691600160401b90041686565b6040805196875260208701959095529385019290925260608401526001600160401b0390811660808401521660a082015260c00161020f565b6105026104fd3660046118a3565b610df8565b60405161020f9190600060a082019050825182526020830151602083015260408301516040830152606083015160608301526001600160401b03608084015116608083015292915050565b61022b61055b366004611963565b610e93565b61024061056e366004611930565b600460209081526000928352604080842090915290825290205481565b6007546105999061ffff1681565b60405161ffff909116815260200161020f565b61030d7f000000000000000000000000000000000000000000000000000000000000000081565b61022b6105e13660046118a3565b610f05565b6105f96105f43660046118a3565b610f40565b60405161020f9190611987565b61022b6106143660046118a3565b610ff0565b61022b610627366004611834565b611069565b6005602052816000526040600020818154811061064857600080fd5b6000918252602090912060029091020180546001909101549092506001600160a01b0381169150600160a01b90046001600160401b031683565b61068a611292565b610693826112ec565b6001600160a01b03919091166000908152600660205260409020805460ff1916911515919091179055565b60006106c8611313565b3360008181526002602090815260408083206001600160a01b038716845290915281205484910361070b576040516282b42960e81b815260040160405180910390fd5b61071361136c565b61071d3385610d23565b925082156108d2573360009081526002602081815260408084206001600160a01b0389168552909152822090810180549192869261075c908490611a20565b92505081905550838160030160008282546107779190611a20565b90915550506004810180546fffffffffffffffff00000000000000001916600160401b426001600160401b0316021790556001600160a01b0385166000908152600360205260408120600281018054919287926107d5908490611a20565b9091555061080f90506001600160a01b037f00000000000000000000000000000000000000000000000000000000000000001633876113b9565b33600081815260056020908152604080832081516060810183528a81526001600160a01b038c81168286018181526001600160401b03428116858801818152875460018082018a55988c529a8a902096516002909b02909601998a5591519890950180549451909516600160a01b026001600160e01b031990941697909216969096179190911790915581518a81529283015283917f9f81142c808a7d106347fcb98d0377ead7114ab7db18afb8337ba258704bb4e1910160405180910390a450505b50506108dd60018055565b919050565b6001600160a01b0381166000908152600560209081526040808320805482518185028101850190935280835260609492939192909184015b8282101561097a5760008481526020908190206040805160608101825260028602909201805483526001908101546001600160a01b03811684860152600160a01b90046001600160401b031691830191909152908352909201910161091a565b505050509050919050565b61098d611292565b610995611421565b565b61099f611313565b6109a761136c565b6109b0826112ec565b6109b981611476565b6109ee6001600160a01b037f000000000000000000000000000000000000000000000000000000000000000016333084611497565b6001600160a01b0382166000818152600360209081526040808320338452600283528184209484529390915281208254909190610a2c908590611a20565b9050600081610a3d86612710611a33565b610a479190611a4a565b8285556001850180549192508291600090610a63908490611a20565b9091555050825485908490600090610a7c908490611a20565b9250508190555080836001016000828254610a979190611a20565b909155505060048301805467ffffffffffffffff1916426001600160401b0316179055610aee7f00000000000000000000000000000000000000000000000000000000000000006001600160a01b031687876113b9565b6040805186815260208101839052426001600160401b03168183015290516001600160a01b0388169133917fb6dfd705fe191cc8c2960db760fbd0971bef97fcddce239c3fd4d7a52fa870299181900360600190a350505050610b5060018055565b5050565b3360009081526006602052604090205460ff16158015610b8e575033610b826000546001600160a01b031690565b6001600160a01b031614155b15610bab576040516282b42960e81b815260040160405180910390fd5b610bb481611476565b6001600160a01b038216600090815260036020526040902080548211610bdb576000610be7565b8054610be79083611a6c565b600382015560048101805467ffffffffffffffff1916426001600160401b03169081179091556040805184815260208101929092526001600160a01b038516917ffb3dd3346b2b62c289558eba9d4b523d5702e1077d6d5109da1e74418396c815910160405180910390a2505050565b3360009081526006602052604090205460ff16158015610c91575033610c856000546001600160a01b031690565b6001600160a01b031614155b15610cae576040516282b42960e81b815260040160405180910390fd5b6040805160008082526001600160401b03421660208301526001600160a01b0384169290917fdb51e034a9c4fad97c0a96f0fb1b7ad537457c64a8ee38d24c9b4d77b816f8c7910160405180910390a350565b610d09611292565b61099560006114d5565b610d1b611292565b610995611525565b6001600160a01b0380831660009081526002602090815260408083209385168352928152828220600390915291812082549192918303610d6857600092505050610db6565b600061271083600101548360030154610d819190611a33565b610d8b9190611a4a565b9050826002015481610d9d9190611a6c565b935060008411610dae576000610db0565b835b93505050505b92915050565b610dc4611292565b610b506001600160a01b037f00000000000000000000000000000000000000000000000000000000000000001683836113b9565b610e336040518060a001604052806000815260200160008152602001600081526020016000815260200160006001600160401b031681525090565b506001600160a01b0316600090815260036020818152604092839020835160a081018552815481526001820154928101929092526002810154938201939093529082015460608201526004909101546001600160401b0316608082015290565b610e9b611292565b6101f48161ffff161115610eed5760405162461bcd60e51b81526020600482015260146024820152734665652063616e6e6f742065786365656420352560601b60448201526064015b60405180910390fd5b6007805461ffff191661ffff92909216919091179055565b610f0d611292565b610f16816112ec565b600780546001600160a01b03909216620100000262010000600160b01b0319909216919091179055565b610f726040518060a0016040528060608152602001600081526020016000815260200160008152602001600081525090565b6000806000806040518060a0016040528060006001600160401b03811115610f9c57610f9c611a7f565b604051908082528060200260200182016040528015610fc5578160200160208202803683370190505b5081526020016000815260200160008152602001600081526020016000815250945050505050919050565b610ff8611292565b6001600160a01b03811661105d5760405162461bcd60e51b815260206004820152602660248201527f4f776e61626c653a206e6577206f776e657220697320746865207a65726f206160448201526564647265737360d01b6064820152608401610ee4565b611066816114d5565b50565b611071611313565b3360008181526002602090815260408083206001600160a01b03871684529091528120548491036110b4576040516282b42960e81b815260040160405180910390fd5b6110bc61136c565b3360009081526002602090815260408083206001600160a01b0388168452825280832060039092529091208415806110f45750815485115b156111125760405163162908e360e11b815260040160405180910390fd5b805460009061112387612710611a33565b61112d9190611a4a565b9050858360000160008282546111439190611a6c565b925050819055508083600101600082825461115e9190611a6c565b9091555050815486908390600090611177908490611a6c565b92505081905550808260010160008282546111929190611a6c565b909155506111cc90506001600160a01b037f00000000000000000000000000000000000000000000000000000000000000001633886113b9565b60006111d83389610d23565b9050801561122e57808460020160008282546111f49190611a20565b9091555061122e90506001600160a01b037f00000000000000000000000000000000000000000000000000000000000000001633836113b9565b6040805188815260208101849052426001600160401b03168183015290516001600160a01b038a169133917fb918d477b6bc66e55a73322db61f59b5b58e850ca163865be2967a43f6c003089181900360600190a3505050505050610b5060018055565b6000546001600160a01b031633146109955760405162461bcd60e51b815260206004820181905260248201527f4f776e61626c653a2063616c6c6572206973206e6f7420746865206f776e65726044820152606401610ee4565b6001600160a01b0381166110665760405163e6c4247b60e01b815260040160405180910390fd5b6002600154036113655760405162461bcd60e51b815260206004820152601f60248201527f5265656e7472616e637947756172643a207265656e7472616e742063616c6c006044820152606401610ee4565b6002600155565b600054600160a01b900460ff16156109955760405162461bcd60e51b815260206004820152601060248201526f14185d5cd8589b194e881c185d5cd95960821b6044820152606401610ee4565b6040516001600160a01b03831660248201526044810182905261141c90849063a9059cbb60e01b906064015b60408051601f198184030181529190526020810180516001600160e01b03166001600160e01b031990931692909217909152611568565b505050565b61142961163d565b6000805460ff60a01b191690557f5db9ee0a495bf2e6ff9c91a7834c1ba4fdd244a5e8aa4e537bd38aeae4b073aa335b6040516001600160a01b03909116815260200160405180910390a1565b806000036110665760405163162908e360e11b815260040160405180910390fd5b6040516001600160a01b03808516602483015283166044820152606481018290526114cf9085906323b872dd60e01b906084016113e5565b50505050565b600080546001600160a01b038381166001600160a01b0319831681178455604051919092169283917f8be0079c531659141344cd1fd0a4f28419497f9722a3daafe3b4186f6b6457e09190a35050565b61152d61136c565b6000805460ff60a01b1916600160a01b1790557f62e78cea01bee320cd4e420270b5ea74000d11b0c9f74754ebdbfc544b05a2586114593390565b60006115bd826040518060400160405280602081526020017f5361666545524332303a206c6f772d6c6576656c2063616c6c206661696c6564815250856001600160a01b031661168d9092919063ffffffff16565b90508051600014806115de5750808060200190518101906115de9190611a95565b61141c5760405162461bcd60e51b815260206004820152602a60248201527f5361666545524332303a204552433230206f7065726174696f6e20646964206e6044820152691bdd081cdd58d8d9595960b21b6064820152608401610ee4565b600054600160a01b900460ff166109955760405162461bcd60e51b815260206004820152601460248201527314185d5cd8589b194e881b9bdd081c185d5cd95960621b6044820152606401610ee4565b606061169c84846000856116a4565b949350505050565b6060824710156117055760405162461bcd60e51b815260206004820152602660248201527f416464726573733a20696e73756666696369656e742062616c616e636520666f6044820152651c8818d85b1b60d21b6064820152608401610ee4565b600080866001600160a01b031685876040516117219190611ad6565b60006040518083038185875af1925050503d806000811461175e576040519150601f19603f3d011682016040523d82523d6000602084013e611763565b606091505b50915091506117748783838761177f565b979650505050505050565b606083156117ee5782516000036117e7576001600160a01b0385163b6117e75760405162461bcd60e51b815260206004820152601d60248201527f416464726573733a2063616c6c20746f206e6f6e2d636f6e74726163740000006044820152606401610ee4565b508161169c565b61169c83838151156118035781518083602001fd5b8060405162461bcd60e51b8152600401610ee49190611af2565b80356001600160a01b03811681146108dd57600080fd5b6000806040838503121561184757600080fd5b6118508361181d565b946020939093013593505050565b801515811461106657600080fd5b6000806040838503121561187f57600080fd5b6118888361181d565b915060208301356118988161185e565b809150509250929050565b6000602082840312156118b557600080fd5b6118be8261181d565b9392505050565b602080825282518282018190526000919060409081850190868401855b8281101561192357815180518552868101516001600160a01b0316878601528501516001600160401b031685850152606090930192908501906001016118e2565b5091979650505050505050565b6000806040838503121561194357600080fd5b61194c8361181d565b915061195a6020840161181d565b90509250929050565b60006020828403121561197557600080fd5b813561ffff811681146118be57600080fd5b6020808252825160a083830152805160c0840181905260009291820190839060e08601905b808310156119d55783516001600160a01b031682529284019260019290920191908401906119ac565b508387015160408701526040870151606087015260608701516080870152608087015160a08701528094505050505092915050565b634e487b7160e01b600052601160045260246000fd5b80820180821115610db657610db6611a0a565b8082028115828204841417610db657610db6611a0a565b600082611a6757634e487b7160e01b600052601260045260246000fd5b500490565b81810381811115610db657610db6611a0a565b634e487b7160e01b600052604160045260246000fd5b600060208284031215611aa757600080fd5b81516118be8161185e565b60005b83811015611acd578181015183820152602001611ab5565b50506000910152565b60008251611ae8818460208701611ab2565b9190910192915050565b6020815260008251806020840152611b11816040850160208701611ab2565b601f01601f1916919091016040019291505056fea2646970667358221220e3d785879f0b209d01eee20fce5466905ac5ee1910943b190e363943ba995d5564736f6c6343000814003360a06040523480156200001157600080fd5b50604051620022ca380380620022ca8339810160408190526200003491620000b2565b6200003f3362000062565b6000805460ff60a01b19169055600180556001600160a01b0316608052620000e4565b600080546001600160a01b038381166001600160a01b0319831681178455604051919092169283917f8be0079c531659141344cd1fd0a4f28419497f9722a3daafe3b4186f6b6457e09190a35050565b600060208284031215620000c557600080fd5b81516001600160a01b0381168114620000dd57600080fd5b9392505050565b6080516121bc6200010e600039600081816102fa01528181610e9e015261121701526121bc6000f3fe608060405234801561001057600080fd5b50600436106101585760003560e01c80636727ead1116100c357806395ccea671161007c57806395ccea67146104255780639b96724a14610438578063a6e338c914610507578063eafe74b51461051a578063ec954ad71461054a578063f2fde38b146105e557600080fd5b80636727ead1146103ae578063715018a6146103c1578063738bd910146103c95780638426e6c1146103e95780638456cb591461040c5780638da5cb5b1461041457600080fd5b80633403461f116101155780633403461f146102cf57806337657827146102e25780633e413bee146102f55780633f4ba83a1461033457806359435f041461033c5780635c975abb1461039c57600080fd5b806302d7bbff1461015d5780630acd2f71146101d757806314fbe08114610254578063158a1ca11461027457806323a8afe814610289578063263ded27146102bc575b600080fd5b61017061016b366004611cb7565b6105f8565b6040516101ce919081516001600160a01b0390811682526020808401519091169082015260408083015190820152606080830151908201526080808301516001600160401b03169082015260a0918201519181019190915260c00190565b60405180910390f35b6102216101e5366004611cea565b6004602052600090815260409020805460018201546002830154600390930154919290916001600160401b03811690600160401b900460ff1685565b604080519586526020860194909452928401919091526001600160401b031660608301521515608082015260a0016101ce565b610267610262366004611cea565b6106a7565b6040516101ce9190611d0c565b610287610282366004611d68565b6106c2565b005b6102ac610297366004611cea565b60066020526000908152604090205460ff1681565b60405190151581526020016101ce565b6102876102ca366004611db7565b6106fe565b6102876102dd366004611de1565b6107d6565b6102876102f0366004611e23565b6109b4565b61031c7f000000000000000000000000000000000000000000000000000000000000000081565b6040516001600160a01b0390911681526020016101ce565b610287610d37565b61034f61034a366004611cea565b610d49565b6040516101ce9190600060a0820190508251825260208301516020830152604083015160408301526001600160401b03606084015116606083015260808301511515608083015292915050565b600054600160a01b900460ff166102ac565b6102876103bc366004611e86565b610def565b610287611060565b6103dc6103d7366004611eb9565b611072565b6040516101ce9190611f0c565b6102ac6103f7366004611cea565b60056020526000908152604090205460ff1681565b6102876111f2565b6000546001600160a01b031661031c565b610287610433366004611fe0565b611202565b6104af610446366004611cb7565b6002602081815260009384526040808520909152918352912080546001820154928201546003830154600484015460058501546006909501546001600160a01b039485169690941694929391926001600160401b0391821692909160ff82169161010090041688565b604080516001600160a01b03998a1681529890971660208901529587019490945260608601929092526001600160401b03908116608086015260a085019190915290151560c08401521660e0820152610100016101ce565b610287610515366004611d68565b611242565b61052d610528366004611cb7565b611343565b604080519283526001600160401b039091166020830152016101ce565b6105cf610558366004611eb9565b60036020819052600091825260409091208054600182015460028301549383015460048401546005850154600686015460079096015460809590951b966001600160a01b0394851696941694929391926001600160401b0380831693600160401b8404821693600160801b90049091169160ff168a565b6040516101ce9a99989796959493929190611ffc565b6102876105f3366004611cea565b6113a1565b6040805160c081018252600080825260208201819052918101829052606081018290526080810182905260a0810191909152506001600160a01b0380831660009081526002602081815260408084208686168552825292839020835160c08101855281548616815260018201549095169185019190915290810154918301919091526003810154606083015260048101546001600160401b031660808301526005015460a08201525b92915050565b604080516000808252602082019092526060915b5092915050565b6106ca61141a565b6106d382611474565b6001600160a01b03919091166000908152600560205260409020805460ff1916911515919091179055565b6001600160801b0319821660009081526003602052604090206001015482906001600160a01b03166107435760405163d36d896560e01b815260040160405180910390fd5b6001600160801b03198316600090815260036020526040902060028101546001600160a01b0316331480610783575060018101546001600160a01b031633145b6107c35760405162461bcd60e51b815260206004820152600c60248201526b155b985d5d1a1bdc9a5e995960a21b60448201526064015b60405180910390fd5b600701805460ff19166004179055505050565b3360009081526005602052604090205460ff161580156108105750336108046000546001600160a01b031690565b6001600160a01b031614155b1561082d576040516282b42960e81b815260040160405180910390fd5b61083561149b565b61083e84611474565b61084783611474565b610850826114e8565b6001600160a01b03848116600081815260026020818152604080842095891680855295909152822080546001600160a01b0319908116909417815560018082018054909516909517909355820185905560048201805467ffffffffffffffff1916426001600160401b03161790556005820184905560068201805460ff1916909317909255906108df83611509565b90506108ee816201518061208d565b6108f890426120b0565b6006830180546001600160401b03929092166101000268ffffffffffffffff00199092169190911790556001600160a01b038516600090815260046020526040812080549091869183919061094e9084906120d0565b90915550506040805186815260208101869052426001600160401b03168183015290516001600160a01b0388811692908a16917f93516b3b499cb1172e4aac1dd50cbbddb2e3c677b27fbceeba41ab94669038279181900360600190a350505050505050565b3360009081526006602052604090205460ff166109e3576040516282b42960e81b815260040160405180910390fd5b6109eb61149b565b6109f485611474565b6109fd836114e8565b6001600160a01b03851660009081526002602090815260408083203384529091529020600681015460ff16610a44576040516282b42960e81b815260040160405180910390fd5b600081600301548260020154610a5a91906120e3565b905080851115610a7d5760405163162908e360e11b815260040160405180910390fd5b6001600160801b031986166000908152600360205260409020600101546001600160a01b031615610ac157604051632bf773b360e11b815260040160405180910390fd5b604051806101400160405280876fffffffffffffffffffffffffffffffff19168152602001336001600160a01b03168152602001886001600160a01b0316815260200186815260200160008152602001426001600160401b03168152602001856001600160401b0316815260200160006001600160401b0316815260200184815260200160006004811115610b5857610b58611ed4565b90526001600160801b031980881660009081526003602081815260409283902085518154608091821c90871617825591860151600180830180546001600160a01b039384166001600160a01b0319918216179091559588015160028401805491909316961695909517905560608601519281019290925584015160048083019190915560a085015160058301805460c088015160e08901516001600160401b03908116600160801b0267ffffffffffffffff60801b19928216600160401b0293909916941693909317179190911694909417909355610100840151600682015561012084015160078201805492949193909260ff1916918490811115610c6057610c60611ed4565b021790555090505084826003016000828254610c7c91906120d0565b90915550506004828101805467ffffffffffffffff1916426001600160401b03161790553360009081526020919091526040812060018101805491928892610cc59084906120d0565b9091555050604080518781526001600160401b03878116602083015242168183015290516001600160a01b038a169133916001600160801b03198b16917f69132d678068c2bc433a6d687cb539120dbf4a7a3d64772837b1ef642cb0c564919081900360600190a45050505050505050565b610d3f61141a565b610d47611804565b565b610d866040518060a0016040528060008152602001600081526020016000815260200160006001600160401b031681526020016000151581525090565b506001600160a01b0316600090815260046020908152604091829020825160a081018452815481526001820154928101929092526002810154928201929092526003909101546001600160401b0381166060830152600160401b900460ff161515608082015290565b610df7611859565b6001600160801b0319831660009081526003602052604090206001015483906001600160a01b0316610e3c5760405163d36d896560e01b815260040160405180910390fd5b610e4461149b565b6001600160801b031984166000908152600360205260409020831580610e6d5750806003015484115b15610e8b5760405163162908e360e11b815260040160405180910390fd5b6001810154610ec9906001600160a01b037f0000000000000000000000000000000000000000000000000000000000000000811691339116876118b2565b83816004016000828254610edd91906120d0565b90915550506003810154600482015410610f2e5760078101805460ff191660021790556005810180546001600160401b034216600160801b0267ffffffffffffffff60801b19909116179055610f3e565b60078101805460ff191660011790555b6002818101546001600160a01b039081166000908152602092835260408082206001860154909316825291909252812060038101805491928792610f839084906120e3565b90915550506004818101805467ffffffffffffffff1916426001600160401b03161790556001838101546001600160a01b0316600090815260209290925260408220908101805491928892610fd99084906120e3565b9250508190555085816002016000828254610ff491906120d0565b90915550506040805187815260208101879052426001600160401b03168183015290516001600160801b03198916917fbe4ff1802ac6aa8bf59438058462fda854ff5a6ec02d3167cf787e54d6fed27d919081900360600190a25050505061105b60018055565b505050565b61106861141a565b610d476000611923565b6110c76040805161014081018252600080825260208201819052918101829052606081018290526080810182905260a0810182905260c0810182905260e0810182905261010081018290529061012082015290565b6001600160801b0319821660009081526003602052604090206001015482906001600160a01b031661110c5760405163d36d896560e01b815260040160405180910390fd5b6001600160801b03198084166000908152600360208181526040928390208351610140810185528154608090811b909616815260018201546001600160a01b03908116938201939093526002820154909216938201939093529082015460608201526004808301549382019390935260058201546001600160401b0380821660a0840152600160401b8204811660c0840152600160801b9091041660e082015260068201546101008201526007820154909261012084019160ff16908111156111d7576111d7611ed4565b60048111156111e8576111e8611ed4565b9052509392505050565b6111fa61141a565b610d47611973565b61120a61141a565b61123e6001600160a01b037f00000000000000000000000000000000000000000000000000000000000000001683836119b6565b5050565b3360009081526005602052604090205460ff1615801561127c5750336112706000546001600160a01b031690565b6001600160a01b031614155b15611299576040516282b42960e81b815260040160405180910390fd5b6112a282611474565b6001600160a01b0382166000818152600660209081526040808320805460ff19168615159081179091556004835292819020600301805468ffffffffffffffffff1916600160401b850267ffffffffffffffff191617426001600160401b03169081179091558151938452918301919091527f9cb94906e1958578c47ab119b5cd436d593f21dfccb1ba9d861c84f01fc8dd73910160405180910390a25050565b6001600160a01b03808316600090815260026020818152604080842094861684529390529181206003810154928101549192839261138191906120e3565b6006919091015490956101009091046001600160401b0316945092505050565b6113a961141a565b6001600160a01b03811661140e5760405162461bcd60e51b815260206004820152602660248201527f4f776e61626c653a206e6577206f776e657220697320746865207a65726f206160448201526564647265737360d01b60648201526084016107ba565b61141781611923565b50565b6000546001600160a01b03163314610d475760405162461bcd60e51b815260206004820181905260248201527f4f776e61626c653a2063616c6c6572206973206e6f7420746865206f776e657260448201526064016107ba565b6001600160a01b0381166114175760405163e6c4247b60e01b815260040160405180910390fd5b600054600160a01b900460ff1615610d475760405162461bcd60e51b815260206004820152601060248201526f14185d5cd8589b194e881c185d5cd95960821b60448201526064016107ba565b806000036114175760405163162908e360e11b815260040160405180910390fd5b60408051808201909152600381526210d3d160ea1b60209091015260007f8c43d1cf5fb150f8a015097684b47be2775f1c9a6671e43164057e4625f69acd82148061159b575060408051808201909152601081526f43617368206f6e2044656c697665727960801b6020909101527f78a359ecc9dc5f76c8168df4efc1e1aa159e7e0d0a9b837bdc719085d136634382145b156115a857506000919050565b6040805180820190915260068152654e65742d313560d01b6020909101527fbadc9c50929e2806a44eab862d7c3add66a5d7470940e1494026fe2bdd35c90b82148061163057506040805180820190915260058152644e6574313560d81b6020909101527f97a4fe28703161336068cf1770c2535d4c06d7cb329e4e4aa2c170f03ba0461782145b1561163d5750600f919050565b60408051808201909152600681526504e65742d33360d41b6020909101527f90e03f291ad6e400e536fb669ce284f1b0edbda3629c5b98e9f640a3986df5a58214806116c5575060408051808201909152600581526404e657433360dc1b6020909101527f6542ce73247b0e01b37aad14bd99e4c255b29312597d04d8c0f05700b257363282145b156116d25750601e919050565b60408051808201909152600681526504e65742d36360d41b6020909101527f11a975fcced38fd425dd382e5179d20ab94a9ae2c80c22495f66609ac8b8711182148061175a575060408051808201909152600581526404e657436360dc1b6020909101527fce47c8b230b725a6d33a7bdf582c8d744af20832f868d821671d02d84021ca0482145b156117675750603c919050565b60408051808201909152600681526504e65742d39360d41b6020909101527f0fc0f4fb050ebc834a2d28863bb57380675535743ae3c9ce16b836595230aceb8214806117ef575060408051808201909152600581526404e657439360dc1b6020909101527f464e4e5b1b99446272606930f11002d9fb5f1aeb8ed2f47d3e204bbc6786427282145b156117fc5750605a919050565b50601e919050565b61180c6119e6565b6000805460ff60a01b191690557f5db9ee0a495bf2e6ff9c91a7834c1ba4fdd244a5e8aa4e537bd38aeae4b073aa335b6040516001600160a01b03909116815260200160405180910390a1565b6002600154036118ab5760405162461bcd60e51b815260206004820152601f60248201527f5265656e7472616e637947756172643a207265656e7472616e742063616c6c0060448201526064016107ba565b6002600155565b6040516001600160a01b038085166024830152831660448201526064810182905261191d9085906323b872dd60e01b906084015b60408051601f198184030181529190526020810180516001600160e01b03166001600160e01b031990931692909217909152611a36565b50505050565b600080546001600160a01b038381166001600160a01b0319831681178455604051919092169283917f8be0079c531659141344cd1fd0a4f28419497f9722a3daafe3b4186f6b6457e09190a35050565b61197b61149b565b6000805460ff60a01b1916600160a01b1790557f62e78cea01bee320cd4e420270b5ea74000d11b0c9f74754ebdbfc544b05a25861183c3390565b6040516001600160a01b03831660248201526044810182905261105b90849063a9059cbb60e01b906064016118e6565b600054600160a01b900460ff16610d475760405162461bcd60e51b815260206004820152601460248201527314185d5cd8589b194e881b9bdd081c185d5cd95960621b60448201526064016107ba565b6000611a8b826040518060400160405280602081526020017f5361666545524332303a206c6f772d6c6576656c2063616c6c206661696c6564815250856001600160a01b0316611b0b9092919063ffffffff16565b9050805160001480611aac575080806020019051810190611aac91906120f6565b61105b5760405162461bcd60e51b815260206004820152602a60248201527f5361666545524332303a204552433230206f7065726174696f6e20646964206e6044820152691bdd081cdd58d8d9595960b21b60648201526084016107ba565b6060611b1a8484600085611b22565b949350505050565b606082471015611b835760405162461bcd60e51b815260206004820152602660248201527f416464726573733a20696e73756666696369656e742062616c616e636520666f6044820152651c8818d85b1b60d21b60648201526084016107ba565b600080866001600160a01b03168587604051611b9f9190612137565b60006040518083038185875af1925050503d8060008114611bdc576040519150601f19603f3d011682016040523d82523d6000602084013e611be1565b606091505b5091509150611bf287838387611bfd565b979650505050505050565b60608315611c6c578251600003611c65576001600160a01b0385163b611c655760405162461bcd60e51b815260206004820152601d60248201527f416464726573733a2063616c6c20746f206e6f6e2d636f6e747261637400000060448201526064016107ba565b5081611b1a565b611b1a8383815115611c815781518083602001fd5b8060405162461bcd60e51b81526004016107ba9190612153565b80356001600160a01b0381168114611cb257600080fd5b919050565b60008060408385031215611cca57600080fd5b611cd383611c9b565b9150611ce160208401611c9b565b90509250929050565b600060208284031215611cfc57600080fd5b611d0582611c9b565b9392505050565b6020808252825182820181905260009190848201906040850190845b81811015611d4e5783516001600160801b03191683529284019291840191600101611d28565b50909695505050505050565b801515811461141757600080fd5b60008060408385031215611d7b57600080fd5b611d8483611c9b565b91506020830135611d9481611d5a565b809150509250929050565b80356001600160801b031981168114611cb257600080fd5b60008060408385031215611dca57600080fd5b611dd383611d9f565b946020939093013593505050565b60008060008060808587031215611df757600080fd5b611e0085611c9b565b9350611e0e60208601611c9b565b93969395505050506040820135916060013590565b600080600080600060a08688031215611e3b57600080fd5b611e4486611c9b565b9450611e5260208701611d9f565b93506040860135925060608601356001600160401b0381168114611e7557600080fd5b949793965091946080013592915050565b600080600060608486031215611e9b57600080fd5b611ea484611d9f565b95602085013595506040909401359392505050565b600060208284031215611ecb57600080fd5b611d0582611d9f565b634e487b7160e01b600052602160045260246000fd5b60058110611f0857634e487b7160e01b600052602160045260246000fd5b9052565b81516001600160801b031916815261014081016020830151611f3960208401826001600160a01b03169052565b506040830151611f5460408401826001600160a01b03169052565b50606083015160608301526080830151608083015260a0830151611f8360a08401826001600160401b03169052565b5060c0830151611f9e60c08401826001600160401b03169052565b5060e0830151611fb960e08401826001600160401b03169052565b50610100838101519083015261012080840151611fd882850182611eea565b505092915050565b60008060408385031215611ff357600080fd5b611dd383611c9b565b6001600160801b03198b1681526001600160a01b038a811660208301528916604082015260608101889052608081018790526001600160401b0386811660a083015285811660c0830152841660e082015261010081018390526101408101612068610120830184611eea565b9b9a5050505050505050505050565b634e487b7160e01b600052601160045260246000fd5b6001600160401b03818116838216028082169190828114611fd857611fd8612077565b6001600160401b038181168382160190808211156106bb576106bb612077565b808201808211156106a1576106a1612077565b818103818111156106a1576106a1612077565b60006020828403121561210857600080fd5b8151611d0581611d5a565b60005b8381101561212e578181015183820152602001612116565b50506000910152565b60008251612149818460208701612113565b9190910192915050565b6020815260008251806020840152612172816040850160208701612113565b601f01601f1916919091016040019291505056fea2646970667358221220afd62a001dd27d6dd08e93689fb84562db835aab2a53158c05b68c02497fc5fb64736f6c63430008140033",
  "linkReferences": {},
  "deployedLinkReferences": {}
}