{
  "_format": "hh-sol-artifact-1",
  "contractName": "OrderSettlement",
  "sourceName": "contracts/core/OrderSettlement.sol",
  "abi": [
    {
      "inputs": [
        {
          "internalType": "address",
          "name": "_restaurantRegistry",
          "type": "address"
        },
        {
          "internalType": "address",
          "name": "_usdc",
          "type": "address"
        },
        {
          "internalType": "address",
          "name": "_feeRecipient",
          "type": "address"
        }
      ],
      "stateMutability": "nonpayable",
      "type": "constructor"
    },
    {
      "inputs": [],
      "name": "AlreadyProcessed",
      "type": "error"
    },
    {
      "inputs": [],
      "name": "DeadlineExceeded",
      "type": "error"
    },
    {
      "inputs": [],
      "name": "InvalidAddress",
      "type": "error"
    },
    {
      "inputs": [],
      "name": "InvalidAmount",
      "type": "error"
    },
    {
      "inputs": [],
      "name": "OrderNotFound",
      "type": "error"
    },
    {
      "inputs": [],
      "name": "RateLimitExceeded",
      "type": "error"
    },
    {
      "inputs": [],
      "name": "RestaurantNotActive",
      "type": "error"
    },
    {
      "inputs": [],
      "name": "Unauthorized",
      "type": "error"
    },
    {
      "anonymous": false,
      "inputs": [
        {
          "indexed": true,
          "internalType": "bytes32",
          "name": "subject",
          "type": "bytes32"
        },
        {
          "indexed": true,
          "internalType": "bytes32",
          "name": "anomalyType",
          "type": "bytes32"
        },
        {
          "indexed": false,
          "internalType": "uint8",
          "name": "severity",
          "type": "uint8"
        },
        {
          "indexed": false,
          "internalType": "bytes32",
          "name": "detailsHash",
          "type": "bytes32"
        },
        {
          "indexed": false,
          "internalType": "uint64",
          "name": "timestamp",
          "type": "uint64"
        }
      ],
      "name": "AnomalyFlagged",
      "type": "event"
    },
    {
      "anonymous": false,
      "inputs": [
        {
          "indexed": true,
          "internalType": "address",
          "name": "previousOwner",
          "type": "address"
        },
        {
          "indexed": true,
          "internalType": "address",
          "name": "newOwner",
          "type": "address"
        }
      ],
      "name": "OwnershipTransferred",
      "type": "event"
    },
    {
      "anonymous": false,
      "inputs": [
        {
          "indexed": false,
          "internalType": "address",
          "name": "account",
          "type": "address"
        }
      ],
      "name": "Paused",
      "type": "event"
    },
    {
      "anonymous": false,
      "inputs": [
        {
          "indexed": true,
          "internalType": "bytes16",
          "name": "orderId",
          "type": "bytes16"
        },
        {
          "indexed": true,
          "internalType": "address",
          "name": "restaurant",
          "type": "address"
        },
        {
          "indexed": true,
          "internalType": "address",
          "name": "customer",
          "type": "address"
        },
        {
          "indexed": false,
          "internalType": "uint256",
          "name": "amountUsd6",
          "type": "uint256"
        },
        {
          "indexed": false,
          "internalType": "enum NileLinkTypes.PaymentMethod",
          "name": "method",
          "type": "uint8"
        },
        {
          "indexed": false,
          "internalType": "uint64",
          "name": "timestamp",
          "type": "uint64"
        }
      ],
      "name": "PaymentIntentCreated",
      "type": "event"
    },
    {
      "anonymous": false,
      "inputs": [
        {
          "indexed": true,
          "internalType": "bytes16",
          "name": "orderId",
          "type": "bytes16"
        },
        {
          "indexed": true,
          "internalType": "address",
          "name": "payer",
          "type": "address"
        },
        {
          "indexed": false,
          "internalType": "uint256",
          "name": "amountUsd6",
          "type": "uint256"
        },
        {
          "indexed": false,
          "internalType": "uint64",
          "name": "timestamp",
          "type": "uint64"
        }
      ],
      "name": "PaymentReceived",
      "type": "event"
    },
    {
      "anonymous": false,
      "inputs": [
        {
          "indexed": true,
          "internalType": "bytes16",
          "name": "orderId",
          "type": "bytes16"
        },
        {
          "indexed": true,
          "internalType": "address",
          "name": "to",
          "type": "address"
        },
        {
          "indexed": false,
          "internalType": "uint256",
          "name": "amountUsd6",
          "type": "uint256"
        },
        {
          "indexed": false,
          "internalType": "uint64",
          "name": "timestamp",
          "type": "uint64"
        }
      ],
      "name": "PaymentRefunded",
      "type": "event"
    },
    {
      "anonymous": false,
      "inputs": [
        {
          "indexed": true,
          "internalType": "bytes16",
          "name": "orderId",
          "type": "bytes16"
        },
        {
          "indexed": true,
          "internalType": "address",
          "name": "restaurant",
          "type": "address"
        },
        {
          "indexed": false,
          "internalType": "uint256",
          "name": "grossUsd6",
          "type": "uint256"
        },
        {
          "indexed": false,
          "internalType": "uint256",
          "name": "feeUsd6",
          "type": "uint256"
        },
        {
          "indexed": false,
          "internalType": "uint256",
          "name": "netUsd6",
          "type": "uint256"
        },
        {
          "indexed": false,
          "internalType": "uint64",
          "name": "timestamp",
          "type": "uint64"
        }
      ],
      "name": "PaymentSettled",
      "type": "event"
    },
    {
      "anonymous": false,
      "inputs": [
        {
          "indexed": false,
          "internalType": "uint16",
          "name": "oldFeeBps",
          "type": "uint16"
        },
        {
          "indexed": false,
          "internalType": "uint16",
          "name": "newFeeBps",
          "type": "uint16"
        },
        {
          "indexed": false,
          "internalType": "uint64",
          "name": "timestamp",
          "type": "uint64"
        }
      ],
      "name": "ProtocolFeeUpdated",
      "type": "event"
    },
    {
      "anonymous": false,
      "inputs": [
        {
          "indexed": true,
          "internalType": "address",
          "name": "restaurant",
          "type": "address"
        },
        {
          "indexed": false,
          "internalType": "uint256",
          "name": "attemptedAmount",
          "type": "uint256"
        },
        {
          "indexed": false,
          "internalType": "uint256",
          "name": "limit",
          "type": "uint256"
        },
        {
          "indexed": false,
          "internalType": "uint64",
          "name": "timestamp",
          "type": "uint64"
        }
      ],
      "name": "RateLimitExceeded",
      "type": "event"
    },
    {
      "anonymous": false,
      "inputs": [
        {
          "indexed": false,
          "internalType": "address",
          "name": "account",
          "type": "address"
        }
      ],
      "name": "Unpaused",
      "type": "event"
    },
    {
      "inputs": [
        {
          "internalType": "bytes16",
          "name": "orderId",
          "type": "bytes16"
        },
        {
          "internalType": "address",
          "name": "restaurant",
          "type": "address"
        },
        {
          "internalType": "address",
          "name": "customer",
          "type": "address"
        },
        {
          "internalType": "uint256",
          "name": "amountUsd6",
          "type": "uint256"
        },
        {
          "internalType": "enum NileLinkTypes.PaymentMethod",
          "name": "method",
          "type": "uint8"
        }
      ],
      "name": "createPaymentIntent",
      "outputs": [],
      "stateMutability": "nonpayable",
      "type": "function"
    },
    {
      "inputs": [
        {
          "internalType": "address",
          "name": "",
          "type": "address"
        }
      ],
      "name": "dailyOrderCount",
      "outputs": [
        {
          "internalType": "uint256",
          "name": "",
          "type": "uint256"
        }
      ],
      "stateMutability": "view",
      "type": "function"
    },
    {
      "inputs": [
        {
          "internalType": "contract IERC20",
          "name": "token",
          "type": "address"
        },
        {
          "internalType": "address",
          "name": "to",
          "type": "address"
        },
        {
          "internalType": "uint256",
          "name": "amount",
          "type": "uint256"
        }
      ],
      "name": "emergencyWithdraw",
      "outputs": [],
      "stateMutability": "nonpayable",
      "type": "function"
    },
    {
      "inputs": [],
      "name": "feeRecipient",
      "outputs": [
        {
          "internalType": "address",
          "name": "",
          "type": "address"
        }
      ],
      "stateMutability": "view",
      "type": "function"
    },
    {
      "inputs": [
        {
          "internalType": "bytes16",
          "name": "orderId",
          "type": "bytes16"
        }
      ],
      "name": "getOrder",
      "outputs": [
        {
          "components": [
            {
              "internalType": "address",
              "name": "restaurant",
              "type": "address"
            },
            {
              "internalType": "address",
              "name": "customer",
              "type": "address"
            },
            {
              "internalType": "uint256",
              "name": "amountUsd6",
              "type": "uint256"
            },
            {
              "internalType": "enum NileLinkTypes.PaymentMethod",
              "name": "method",
              "type": "uint8"
            },
            {
              "internalType": "enum NileLinkTypes.TxStatus",
              "name": "status",
              "type": "uint8"
            },
            {
              "internalType": "uint64",
              "name": "createdAt",
              "type": "uint64"
            },
            {
              "internalType": "uint64",
              "name": "paidAt",
              "type": "uint64"
            },
            {
              "internalType": "uint64",
              "name": "settledAt",
              "type": "uint64"
            },
            {
              "internalType": "string",
              "name": "items",
              "type": "string"
            }
          ],
          "internalType": "struct OrderSettlement.OrderData",
          "name": "order",
          "type": "tuple"
        }
      ],
      "stateMutability": "view",
      "type": "function"
    },
    {
      "inputs": [
        {
          "internalType": "bytes16",
          "name": "orderId",
          "type": "bytes16"
        }
      ],
      "name": "getOrderStatus",
      "outputs": [
        {
          "internalType": "enum NileLinkTypes.TxStatus",
          "name": "status",
          "type": "uint8"
        },
        {
          "internalType": "uint256",
          "name": "amount",
          "type": "uint256"
        },
        {
          "internalType": "uint64",
          "name": "paidAt",
          "type": "uint64"
        },
        {
          "internalType": "uint64",
          "name": "settledAt",
          "type": "uint64"
        }
      ],
      "stateMutability": "view",
      "type": "function"
    },
    {
      "inputs": [
        {
          "internalType": "bytes16",
          "name": "orderId",
          "type": "bytes16"
        }
      ],
      "name": "getRefundReference",
      "outputs": [
        {
          "internalType": "bytes32",
          "name": "refundRef",
          "type": "bytes32"
        }
      ],
      "stateMutability": "view",
      "type": "function"
    },
    {
      "inputs": [
        {
          "internalType": "address",
          "name": "",
          "type": "address"
        }
      ],
      "name": "lastOrderCountReset",
      "outputs": [
        {
          "internalType": "uint64",
          "name": "",
          "type": "uint64"
        }
      ],
      "stateMutability": "view",
      "type": "function"
    },
    {
      "inputs": [
        {
          "internalType": "bytes16",
          "name": "",
          "type": "bytes16"
        }
      ],
      "name": "orderRefunds",
      "outputs": [
        {
          "internalType": "bytes32",
          "name": "",
          "type": "bytes32"
        }
      ],
      "stateMutability": "view",
      "type": "function"
    },
    {
      "inputs": [
        {
          "internalType": "bytes16",
          "name": "",
          "type": "bytes16"
        }
      ],
      "name": "orders",
      "outputs": [
        {
          "internalType": "address",
          "name": "restaurant",
          "type": "address"
        },
        {
          "internalType": "address",
          "name": "customer",
          "type": "address"
        },
        {
          "internalType": "uint256",
          "name": "amountUsd6",
          "type": "uint256"
        },
        {
          "internalType": "enum NileLinkTypes.PaymentMethod",
          "name": "method",
          "type": "uint8"
        },
        {
          "internalType": "enum NileLinkTypes.TxStatus",
          "name": "status",
          "type": "uint8"
        },
        {
          "internalType": "uint64",
          "name": "createdAt",
          "type": "uint64"
        },
        {
          "internalType": "uint64",
          "name": "paidAt",
          "type": "uint64"
        },
        {
          "internalType": "uint64",
          "name": "settledAt",
          "type": "uint64"
        },
        {
          "internalType": "string",
          "name": "items",
          "type": "string"
        }
      ],
      "stateMutability": "view",
      "type": "function"
    },
    {
      "inputs": [],
      "name": "owner",
      "outputs": [
        {
          "internalType": "address",
          "name": "",
          "type": "address"
        }
      ],
      "stateMutability": "view",
      "type": "function"
    },
    {
      "inputs": [],
      "name": "pause",
      "outputs": [],
      "stateMutability": "nonpayable",
      "type": "function"
    },
    {
      "inputs": [],
      "name": "paused",
      "outputs": [
        {
          "internalType": "bool",
          "name": "",
          "type": "bool"
        }
      ],
      "stateMutability": "view",
      "type": "function"
    },
    {
      "inputs": [
        {
          "internalType": "bytes16",
          "name": "orderId",
          "type": "bytes16"
        },
        {
          "internalType": "uint256",
          "name": "amountUsd6",
          "type": "uint256"
        }
      ],
      "name": "pay",
      "outputs": [],
      "stateMutability": "nonpayable",
      "type": "function"
    },
    {
      "inputs": [],
      "name": "protocolFeeBps",
      "outputs": [
        {
          "internalType": "uint16",
          "name": "",
          "type": "uint16"
        }
      ],
      "stateMutability": "view",
      "type": "function"
    },
    {
      "inputs": [
        {
          "internalType": "bytes16",
          "name": "orderId",
          "type": "bytes16"
        },
        {
          "internalType": "address",
          "name": "to",
          "type": "address"
        },
        {
          "internalType": "uint256",
          "name": "amountUsd6",
          "type": "uint256"
        }
      ],
      "name": "refund",
      "outputs": [],
      "stateMutability": "nonpayable",
      "type": "function"
    },
    {
      "inputs": [],
      "name": "renounceOwnership",
      "outputs": [],
      "stateMutability": "nonpayable",
      "type": "function"
    },
    {
      "inputs": [],
      "name": "restaurantRegistry",
      "outputs": [
        {
          "internalType": "contract RestaurantRegistry",
          "name": "",
          "type": "address"
        }
      ],
      "stateMutability": "view",
      "type": "function"
    },
    {
      "inputs": [
        {
          "internalType": "address",
          "name": "newRecipient",
          "type": "address"
        }
      ],
      "name": "setFeeRecipient",
      "outputs": [],
      "stateMutability": "nonpayable",
      "type": "function"
    },
    {
      "inputs": [
        {
          "internalType": "uint16",
          "name": "newFeeBps",
          "type": "uint16"
        }
      ],
      "name": "setProtocolFee",
      "outputs": [],
      "stateMutability": "nonpayable",
      "type": "function"
    },
    {
      "inputs": [
        {
          "internalType": "bytes16",
          "name": "orderId",
          "type": "bytes16"
        }
      ],
      "name": "settle",
      "outputs": [],
      "stateMutability": "nonpayable",
      "type": "function"
    },
    {
      "inputs": [
        {
          "internalType": "address",
          "name": "newOwner",
          "type": "address"
        }
      ],
      "name": "transferOwnership",
      "outputs": [],
      "stateMutability": "nonpayable",
      "type": "function"
    },
    {
      "inputs": [],
      "name": "unpause",
      "outputs": [],
      "stateMutability": "nonpayable",
      "type": "function"
    },
    {
      "inputs": [],
      "name": "usdc",
      "outputs": [
        {
          "internalType": "contract IERC20",
          "name": "",
          "type": "address"
        }
      ],
      "stateMutability": "view",
      "type": "function"
    }
  ],
  "bytecode": "0x60c06040526002805461ffff191660321790553480156200001f57600080fd5b50604051620024c4380380620024c4833981016040819052620000429162000103565b6200004d3362000096565b6000805460ff60a01b19169055600180556001600160a01b0392831660805290821660a0526002805491909216620100000262010000600160b01b03199091161790556200014d565b600080546001600160a01b038381166001600160a01b0319831681178455604051919092169283917f8be0079c531659141344cd1fd0a4f28419497f9722a3daafe3b4186f6b6457e09190a35050565b80516001600160a01b0381168114620000fe57600080fd5b919050565b6000806000606084860312156200011957600080fd5b6200012484620000e6565b92506200013460208501620000e6565b91506200014460408501620000e6565b90509250925092565b60805160a051612320620001a46000396000818161021c0152818161061301528181611300015281816116ab01526116e501526000818161018e015281816107e4015281816108d3015261098a01526123206000f3fe608060405234801561001057600080fd5b50600436106101585760003560e01c8063a84918e9116100c3578063e63ea4081161007c578063e63ea4081461037e578063e74b981b14610391578063e845ccbb146103a4578063f07319be146103c4578063f2fde38b146103e4578063f79d862d146103f757600080fd5b8063a84918e9146102b2578063adb3c19c146102c5578063b736ed16146102d8578063c5c7312414610302578063c987744a1461032a578063e4467f351461036b57600080fd5b8063469048401161011557806346904840146102485780635c975abb146102615780635fc44e821461027e578063715018a6146102915780638456cb59146102995780638da5cb5b146102a157600080fd5b8063061299261461015d57806323cf41c8146101895780632892dfcd146101c857806335659fb8146101f65780633e413bee146102175780633f4ba83a1461023e575b600080fd5b61017061016b366004611b15565b61040a565b6040516101809493929190611b61565b60405180910390f35b6101b07f000000000000000000000000000000000000000000000000000000000000000081565b6040516001600160a01b039091168152602001610180565b6101e86101d6366004611ba9565b60056020526000908152604090205481565b604051908152602001610180565b6002546102049061ffff1681565b60405161ffff9091168152602001610180565b6101b07f000000000000000000000000000000000000000000000000000000000000000081565b6102466104a7565b005b6002546101b0906201000090046001600160a01b031681565b600054600160a01b900460ff166040519015158152602001610180565b61024661028c366004611bc6565b6104b9565b610246610718565b61024661072a565b6000546001600160a01b03166101b0565b6102466102c0366004611b15565b61073a565b6102466102d3366004611c12565b6107a2565b6101e86102e6366004611b15565b6001600160801b03191660009081526004602052604090205490565b610315610310366004611b15565b610c6b565b60405161018099989796959493929190611cd8565b610353610338366004611ba9565b6006602052600090815260409020546001600160401b031681565b6040516001600160401b039091168152602001610180565b610246610379366004611d65565b610d65565b61024661038c366004611d82565b610e28565b61024661039f366004611ba9565b610e44565b6101e86103b2366004611b15565b60046020526000908152604090205481565b6103d76103d2366004611b15565b610e7f565b6040516101809190611da2565b6102466103f2366004611ba9565b6110a1565b610246610405366004611e69565b611117565b6001600160801b0319811660009081526003602052604081205481908190819085906001600160a01b03166104525760405163d36d896560e01b815260040160405180910390fd5b505050506001600160801b03199190911660009081526003602081905260409091209081015460029091015460ff610100830416939092506001600160401b03600160501b8304811692600160901b90041690565b6104af6113c1565b6104b761141b565b565b6104c1611470565b6001600160801b0319831660009081526003602052604090205483906001600160a01b03166105035760405163d36d896560e01b815260040160405180910390fd5b61050b6114c9565b6001600160801b03198416600090815260036020526040902060016003820154610100900460ff16600481111561054457610544611b37565b14158015610570575060026003820154610100900460ff16600481111561056d5761056d611b37565b14155b1561058d576040516282b42960e81b815260040160405180910390fd5b80600201548311156105b25760405163162908e360e11b815260040160405180910390fd5b60038101546105d490600160501b90046001600160401b031662278d00611ea9565b6001600160401b0316426001600160401b031611156106065760405163559895a360e01b815260040160405180910390fd5b61063a6001600160a01b037f0000000000000000000000000000000000000000000000000000000000000000168585611516565b806002015483036106575760038101805461ff0019166104001790555b604080516001600160a01b03861660208201529081018490526001600160401b034216606082015260800160408051601f1981840301815282825280516020918201206001600160801b031989166000818152600490935292909120556001600160a01b038616917f878e558977f459b19c4fd64eab00485218ee40f689174a9935615e5f0c094fa49061070090879042909182526001600160401b0316602082015260400190565b60405180910390a3505061071360018055565b505050565b6107206113c1565b6104b76000611579565b6107326113c1565b6104b76115c9565b610742611470565b6001600160801b0319811660009081526003602052604090205481906001600160a01b03166107845760405163d36d896560e01b815260040160405180910390fd5b61078c6114c9565b6107958261160c565b5061079f60018055565b50565b6107aa6114c9565b6107b3846117bd565b6107bc836117bd565b6107c5826117e4565b604051639f8a13d760e01b81526001600160a01b0385811660048301527f00000000000000000000000000000000000000000000000000000000000000001690639f8a13d790602401602060405180830381865afa15801561082b573d6000803e3d6000fd5b505050506040513d601f19601f8201168201806040525081019061084f9190611ed0565b61086c5760405163d5eb2b5560e01b815260040160405180910390fd5b6001600160801b031985166000908152600360205260409020546001600160a01b0316156108ad57604051632bf773b360e11b815260040160405180910390fd5b6040516306cd7eeb60e01b81526001600160a01b038581166004830152602482018490527f000000000000000000000000000000000000000000000000000000000000000016906306cd7eeb906044016020604051808303816000875af115801561091c573d6000803e3d6000fd5b505050506040513d601f19601f820116820180604052508101906109409190611ed0565b610a3f57604051631bfe94bd60e31b81526001600160a01b0380861660048301819052917f709a04c1f2d220e54283295686b4ea519d3f2e3707391a6977a0e5458889b3c19185917f00000000000000000000000000000000000000000000000000000000000000009091169063dff4a5e8906024016101a060405180830381865afa1580156109d4573d6000803e3d6000fd5b505050506040513d601f19601f820116820180604052508101906109f89190611fcd565b60209081015160a0015160408051938452918301526001600160401b0342169082015260600160405180910390a260405163a74c1c5f60e01b815260040160405180910390fd5b604051806101200160405280856001600160a01b03168152602001846001600160a01b03168152602001838152602001826002811115610a8157610a81611b37565b8152602001600081526001600160401b034216602080830191909152600060408084018290526060808501839052815180850183528381526080909501949094526001600160801b03198a168252600380845291819020855181546001600160a01b039182166001600160a01b0319918216178355948701516001808401805492909316919096161790559085015160028083019190915593850151918101805491949293909260ff19909216918490811115610b4057610b40611b37565b0217905550608082015160038201805461ff001916610100836004811115610b6a57610b6a611b37565b021790555060a082015160038201805460c085015160e086015171ffffffffffffffffffffffffffffffff000019909216620100006001600160401b039586160267ffffffffffffffff60501b191617600160501b918516919091021767ffffffffffffffff60901b1916600160901b93909116929092029190911790556101008201516004820190610bfd9082612157565b50905050826001600160a01b0316846001600160a01b0316866fffffffffffffffffffffffffffffffff19167faded44f53b75a71d455d307b0a76fedb05f2971e4ea9e003b2bfa1a946ccb9cf858542604051610c5c93929190612216565b60405180910390a45050505050565b6003602081905260009182526040909120805460018201546002830154938301546004840180546001600160a01b0394851696949093169460ff808416946101008504909116936001600160401b03620100008204811694600160501b8304821694600160901b90930490911692610ce2906120d5565b80601f0160208091040260200160405190810160405280929190818152602001828054610d0e906120d5565b8015610d5b5780601f10610d3057610100808354040283529160200191610d5b565b820191906000526020600020905b815481529060010190602001808311610d3e57829003601f168201915b5050505050905089565b610d6d6113c1565b60648161ffff161115610dbe5760405162461bcd60e51b81526020600482015260146024820152734665652063616e6e6f742065786365656420312560601b60448201526064015b60405180910390fd5b6002805461ffff83811661ffff198316811790935560408051919092168082526020820193909352426001600160401b0316918101919091527f4d0df11d2215e9a97a53414300291da7786bc38ef97920235ce8fea21cdab0269060600160405180910390a15050565b610e306113c1565b6107136001600160a01b0384168383611516565b610e4c6113c1565b610e55816117bd565b600280546001600160a01b03909216620100000262010000600160b01b0319909216919091179055565b610ed060408051610120810182526000808252602082018190529181018290529060608201908152602001600081526000602082018190526040820181905260608083019190915260809091015290565b6001600160801b0319821660009081526003602052604090205482906001600160a01b0316610f125760405163d36d896560e01b815260040160405180910390fd5b6001600160801b0319831660009081526003602081815260409283902083516101208101855281546001600160a01b0390811682526001830154169281019290925260028082015494830194909452918201549092606084019160ff1690811115610f7f57610f7f611b37565b6002811115610f9057610f90611b37565b81526020016003820160019054906101000a900460ff166004811115610fb857610fb8611b37565b6004811115610fc957610fc9611b37565b815260038201546001600160401b0362010000820481166020840152600160501b820481166040840152600160901b909104166060820152600482018054608090920191611016906120d5565b80601f0160208091040260200160405190810160405280929190818152602001828054611042906120d5565b801561108f5780601f106110645761010080835404028352916020019161108f565b820191906000526020600020905b81548152906001019060200180831161107257829003601f168201915b50505050508152505091505b50919050565b6110a96113c1565b6001600160a01b03811661110e5760405162461bcd60e51b815260206004820152602660248201527f4f776e61626c653a206e6577206f776e657220697320746865207a65726f206160448201526564647265737360d01b6064820152608401610db5565b61079f81611579565b61111f611470565b6001600160801b0319821660009081526003602052604090205482906001600160a01b03166111615760405163d36d896560e01b815260040160405180910390fd5b6111696114c9565b6001600160801b031983166000908152600360205260408120906003820154610100900460ff1660048111156111a1576111a1611b37565b146111bf57604051632bf773b360e11b815260040160405180910390fd5b806002015483146111e35760405163162908e360e11b815260040160405180910390fd5b6003810154611204906201000090046001600160401b031662093a80611ea9565b6001600160401b0316426001600160401b031611156112f357604080518082018252600d81526c13d491115497d1561412549151609a1b60209182015281516060810190925260288083527fa48c42e7de0bd8fd101e826f142b7eb62a1270ec4933a106cef8a8e15ce5719a926001600160801b03198816927fbf8234647b7172a228e0f0df08220c61199de02bc6b1ea20eb65bfe846980e8992600592916122c39083013980516020918201206040805160ff9094168452918301526001600160401b0342169082015260600160405180910390a360405163559895a360e01b815260040160405180910390fd5b6113286001600160a01b037f000000000000000000000000000000000000000000000000000000000000000016333086611805565b6003810180546001600160401b034216600160501b810271ffffffffffffffff0000000000000000ff0019909216919091176101001790915560408051858152602081019290925233916001600160801b03198716917ffffabca3e800567ff5f5e06b8f6041b6da08ad3311ec4724fbc2f3cda0f26f9e910160405180910390a36113b28461160c565b50506113bd60018055565b5050565b6000546001600160a01b031633146104b75760405162461bcd60e51b815260206004820181905260248201527f4f776e61626c653a2063616c6c6572206973206e6f7420746865206f776e65726044820152606401610db5565b611423611843565b6000805460ff60a01b191690557f5db9ee0a495bf2e6ff9c91a7834c1ba4fdd244a5e8aa4e537bd38aeae4b073aa335b6040516001600160a01b03909116815260200160405180910390a1565b6002600154036114c25760405162461bcd60e51b815260206004820152601f60248201527f5265656e7472616e637947756172643a207265656e7472616e742063616c6c006044820152606401610db5565b6002600155565b600054600160a01b900460ff16156104b75760405162461bcd60e51b815260206004820152601060248201526f14185d5cd8589b194e881c185d5cd95960821b6044820152606401610db5565b6040516001600160a01b03831660248201526044810182905261071390849063a9059cbb60e01b906064015b60408051601f198184030181529190526020810180516001600160e01b03166001600160e01b031990931692909217909152611893565b600080546001600160a01b038381166001600160a01b0319831681178455604051919092169283917f8be0079c531659141344cd1fd0a4f28419497f9722a3daafe3b4186f6b6457e09190a35050565b6115d16114c9565b6000805460ff60a01b1916600160a01b1790557f62e78cea01bee320cd4e420270b5ea74000d11b0c9f74754ebdbfc544b05a2586114533390565b6001600160801b03198116600090815260036020526040902060016003820154610100900460ff16600481111561164557611645611b37565b1461166357604051632bf773b360e11b815260040160405180910390fd5b6002808201549054600090612710906116809061ffff1684612241565b61168a919061225e565b905060006116988284612280565b84549091506116d4906001600160a01b037f00000000000000000000000000000000000000000000000000000000000000008116911683611516565b600254611714906001600160a01b037f00000000000000000000000000000000000000000000000000000000000000008116916201000090041684611516565b6003840180546001600160401b034216600160901b810279ffffffffffffffff00000000000000000000000000000000ff001990921691909117610200179091558454604080518681526020810186905290810184905260608101929092526001600160a01b0316906001600160801b03198716907f475c6ae21112f4224b71f2f80ed3f4c4c93c00187163af205dba60aba00b736e9060800160405180910390a35050505050565b6001600160a01b03811661079f5760405163e6c4247b60e01b815260040160405180910390fd5b8060000361079f5760405163162908e360e11b815260040160405180910390fd5b6040516001600160a01b038085166024830152831660448201526064810182905261183d9085906323b872dd60e01b90608401611542565b50505050565b600054600160a01b900460ff166104b75760405162461bcd60e51b815260206004820152601460248201527314185d5cd8589b194e881b9bdd081c185d5cd95960621b6044820152606401610db5565b60006118e8826040518060400160405280602081526020017f5361666545524332303a206c6f772d6c6576656c2063616c6c206661696c6564815250856001600160a01b03166119689092919063ffffffff16565b90508051600014806119095750808060200190518101906119099190611ed0565b6107135760405162461bcd60e51b815260206004820152602a60248201527f5361666545524332303a204552433230206f7065726174696f6e20646964206e6044820152691bdd081cdd58d8d9595960b21b6064820152608401610db5565b6060611977848460008561197f565b949350505050565b6060824710156119e05760405162461bcd60e51b815260206004820152602660248201527f416464726573733a20696e73756666696369656e742062616c616e636520666f6044820152651c8818d85b1b60d21b6064820152608401610db5565b600080866001600160a01b031685876040516119fc9190612293565b60006040518083038185875af1925050503d8060008114611a39576040519150601f19603f3d011682016040523d82523d6000602084013e611a3e565b606091505b5091509150611a4f87838387611a5a565b979650505050505050565b60608315611ac9578251600003611ac2576001600160a01b0385163b611ac25760405162461bcd60e51b815260206004820152601d60248201527f416464726573733a2063616c6c20746f206e6f6e2d636f6e74726163740000006044820152606401610db5565b5081611977565b6119778383815115611ade5781518083602001fd5b8060405162461bcd60e51b8152600401610db591906122af565b80356001600160801b031981168114611b1057600080fd5b919050565b600060208284031215611b2757600080fd5b611b3082611af8565b9392505050565b634e487b7160e01b600052602160045260246000fd5b60058110611b5d57611b5d611b37565b9052565b60808101611b6f8287611b4d565b60208201949094526001600160401b0392831660408201529116606090910152919050565b6001600160a01b038116811461079f57600080fd5b600060208284031215611bbb57600080fd5b8135611b3081611b94565b600080600060608486031215611bdb57600080fd5b611be484611af8565b92506020840135611bf481611b94565b929592945050506040919091013590565b6003811061079f57600080fd5b600080600080600060a08688031215611c2a57600080fd5b611c3386611af8565b94506020860135611c4381611b94565b93506040860135611c5381611b94565b9250606086013591506080860135611c6a81611c05565b809150509295509295909350565b60038110611b5d57611b5d611b37565b60005b83811015611ca3578181015183820152602001611c8b565b50506000910152565b60008151808452611cc4816020860160208601611c88565b601f01601f19169290920160200192915050565b6001600160a01b038a8116825289166020820152604081018890526000610120611d05606084018a611c78565b611d126080840189611b4d565b6001600160401b0387811660a085015286811660c0850152851660e08401526101008301819052611d4581840185611cac565b9c9b505050505050505050505050565b61ffff8116811461079f57600080fd5b600060208284031215611d7757600080fd5b8135611b3081611d55565b600080600060608486031215611d9757600080fd5b8335611be481611b94565b60208152611dbc6020820183516001600160a01b03169052565b60006020830151611dd860408401826001600160a01b03169052565b50604083015160608301526060830151611df56080840182611c78565b506080830151611e0860a0840182611b4d565b5060a08301516001600160401b03811660c08401525060c08301516001600160401b03811660e08401525060e0830151610100611e4f818501836001600160401b03169052565b840151610120848101529050611977610140840182611cac565b60008060408385031215611e7c57600080fd5b611e8583611af8565b946020939093013593505050565b634e487b7160e01b600052601160045260246000fd5b6001600160401b03818116838216019080821115611ec957611ec9611e93565b5092915050565b600060208284031215611ee257600080fd5b81518015158114611b3057600080fd5b634e487b7160e01b600052604160045260246000fd5b604051608081016001600160401b0381118282101715611f2a57611f2a611ef2565b60405290565b60405161014081016001600160401b0381118282101715611f2a57611f2a611ef2565b8051611b1081611b94565b80516001600160f01b031981168114611b1057600080fd5b80516001600160e81b031981168114611b1057600080fd5b8051600381900b8114611b1057600080fd5b8051611b1081611d55565b8051611b1081611c05565b80516001600160401b0381168114611b1057600080fd5b60008183036101a0811215611fe157600080fd5b611fe9611f08565b8351611ff481611b94565b8152610140601f19830181131561200a57600080fd5b612012611f30565b925060208501518352604085015160208401526060850151604084015261203b60808601611f5e565b606084015261204c60a08601611f76565b608084015260c085015160a084015261206760e08601611f8e565b60c084015261010061207a818701611fa0565b60e085015261012061208d818801611f53565b8286015261209c838801611fab565b818601525050508160208201526120b66101608501611fb6565b60408201526120c86101808501611fb6565b6060820152949350505050565b600181811c908216806120e957607f821691505b60208210810361109b57634e487b7160e01b600052602260045260246000fd5b601f82111561071357600081815260208120601f850160051c810160208610156121305750805b601f850160051c820191505b8181101561214f5782815560010161213c565b505050505050565b81516001600160401b0381111561217057612170611ef2565b6121848161217e84546120d5565b84612109565b602080601f8311600181146121b957600084156121a15750858301515b600019600386901b1c1916600185901b17855561214f565b600085815260208120601f198616915b828110156121e8578886015182559484019460019091019084016121c9565b50858210156122065787850151600019600388901b60f8161c191681555b5050505050600190811b01905550565b8381526060810161222a6020830185611c78565b6001600160401b0383166040830152949350505050565b808202811582820484141761225857612258611e93565b92915050565b60008261227b57634e487b7160e01b600052601260045260246000fd5b500490565b8181038181111561225857612258611e93565b600082516122a5818460208701611c88565b9190910192915050565b602081526000611b306020830184611cac56fe4f72646572207061796d656e7420617474656d707465642061667465722065787069726174696f6ea2646970667358221220d2b2aaaa3f8b92f0676083d755f4fa06a6adae496e13d41b5facb27bb02eb42564736f6c63430008140033",
  "linkReferences": {},
  "deployedLinkReferences": {}
}